:020000040800F2
:100000008809002059020008252F00081D2F00082C
:10001000212F00088D14000859320008000000004C
:100020000000000000000000000000001130000887
:100030009114000800000000292F00081530000866
:1000400073020008730200087302000873020008BC
:1000500073020008730200087302000873020008AC
:10006000730200087302000873020008730200089C
:10007000730200087302000873020008730200088C
:10008000730200087302000873020008730200087C
:10009000730200087302000873020008730200086C
:1000A000730200087302000873020008730200085C
:1000B000730200087302000873020008730200084C
:1000C000730200087302000873020008730200083C
:1000D000730200087302000873020008730200082C
:1000E00095140008730200087302000873020008E8
:1000F000730200087302000873020008730200080C
:1001000073020008730200087302000873020008FB
:1001100073020008730200087302000873020008EB
:1001200073020008730200087302000873020008DB
:1001300073020008730200087302000873020008CB
:1001400073020008730200087302000873020008BB
:1001500073020008730200087302000873020008AB
:10016000730200087302000873020008730200089B
:100170007302000873020008730200080000000008
:10018000730200087302000800F002F800F054F84F
:100190000AA090E8000C82448344AAF10107DA45E2
:1001A00001D100F049F8AFF2090EBAE80F0013F0E0
:1001B000010F18BFFB1A43F00103184788540000D1
:1001C000A8540000103A24BF78C878C1FAD8520762
:1001D00024BF30C830C144BF04680C6070470000C1
:1001E0000023002400250026103A28BF78C1FBD840
:1001F000520728BF30C148BF0B607047662905F021
:10020000A881782900F0CC80002070471FB505F048
:1002100093F99DE8030000F01FFF00F02BFC0400A1
:100220000020002104F06CFDE06000F03BFD1FBDEC
:1002300010B500F0A0FD10BD00F0D4FD1146FFF791
:10024000E5FF03F0A5FE00F0DBFE03B4FFF7F0FFCF
:1002500003BC01F07FF800000948804709480047C7
:10026000FEE7FEE7FEE7FEE7FEE7FEE7FEE7FEE766
:10027000FEE7FEE704480549054A064B70470000C3
:10028000193000088901000888030020880900202F
:10029000880500208805002053EA020C00F06980E0
:1002A0002DE9F04B4FF00006002B1FBFB3FA83F58A
:1002B00003FA05F424FA05F65E4012BF1643B2FABB
:1002C00082F502FA05F4C5F120051EBF22FA05FCED
:1002D00044EA0C04203556EA044C4FEA144418BF93
:1002E000641C4FF000084FF00009904271EB030CC2
:1002F00039D3002919BFB1FA81F701FA07F6B0FA2C
:1003000080F700FA07F6C7F120071EBF20FA07FCA6
:1003100046EA0C062037B6FBF4FCA7EB0507103FB6
:1003200007F01F0BCBF120062CFA06F60CFA0BFB9C
:1003300044BFB3460026202FA4BF5E464FF0000BFB
:100340005BEA060C08BF4FF0010B19EB0B0948EBF9
:100350000608ABFB027C06FB02CC0BFB03CCC01BEC
:1003600071EB0C01C1E70B46024641464846BDE829
:10037000F08B13B5084318BF4FF0FF300146AFF3C1
:100380000080BDE81C4070470FB4044910B503AAB3
:10039000029800F05DFB10BC5DF814FB7C000020AF
:1003A00070B504460D4621461068AFF300802188E1
:1003B000090502D50F4A7A4402E00E4A7A440E3209
:1003C000002104F1240305E000F00F060009965D0A
:1003D0005E54491C0028F7D120780023000704D57B
:1003E000702D02D009B1022311322046BDE87040C1
:1003F00000F0C7B89C5100002DE9F0410F460546BA
:10040000002028622846E968884770B3252805D06F
:10041000D5E901219047286A401CF2E7E96828469F
:10042000002688476C2804460AD0682C08D04C2C3B
:1004300035D06A2C31D0742C31D07A2C2FD016E0E4
:10044000E968064628468847B042044608D16C2E23
:1004500023D04FF480662846E9688847044606E0C2
:100460006C2E03D04FF4807601E01EE04026E4B10C
:10047000A4F14100192802D8203446F400663A4617
:10048000214628462E60FFF7B9FE60B1012808D04A
:10049000FF1D27F007070837B4E78026DBE70026B3
:1004A000D9E73F1DAEE72046B2E7286ABDE8F081F4
:1004B0004FF0000200B5134694469646203922BFFD
:1004C000A0E80C50A0E80C50B1F12001BFF4F7AF48
:1004D000090728BFA0E80C5048BF0CC05DF804EB2A
:1004E000890028BF40F8042B08BF704748BF20F898
:1004F000022B11F0804F18BF00F8012B704700004D
:1005000030B44FF0013C50F8042B51F8043BCCFAC6
:1005100052F4D51A20D1FCB950F8042B51F8043B01
:10052000CCFA52F4D51A17D1B4B950F8042B51F8BB
:10053000043BCCFA52F4D51A0ED16CB950F8042B06
:1005400051F8043BCCFA52F4D51A05D1002CDAD07C
:1005500030BC4FF00000704729BAB1FA81F111F0B8
:100560001801D1F120008440F2D1CA40CB4012F0F2
:10057000FF0213F0FF0330BCD01A7047704770477A
:1005800070472DE9F0470D4699469246044600F122
:1005900024080168880604D5E06921F01001216073
:1005A00000E00120A84201DD471B00E00027A1690F
:1005B0007A1902EB0900081AA0612078C00602D45B
:1005C0002046AFF30080002608E0D4E901211AF8A4
:1005D00006009047206A401C761C20624E45F4DBE2
:1005E0002078C0060AD52046AFF3008006E0D4E9A3
:1005F000012130209047206A401C2062381EA7F15C
:100600000107F4DC07E0D4E9012118F80500904760
:10061000206A401C2062281EA5F10105F3DC20465B
:10062000AFF300802078000602D50220BDE8F087F5
:100630000120FBE72DE9FF4F0C461E464FF0FF3728
:100640008BB0D2E90001DDF860800A908A46C1F3E0
:100650000A5505B93D46002108464FF00000BAF1A1
:10066000000F00F4400005DA00EB80004FF4400179
:1006700001EA50004FEA9059B9F1010F00DDB94687
:100680000A9850EA4A000ED044F61050A5F2FF3501
:1006900045432F14B8F1000F1ED07542291E1EDDF0
:1006A000C9F100021CE0B8F1010F4FF0000001D0C9
:1006B000302103E0F24305E02154401CB042FBDB53
:1006C00030460022002121540B99C1F80880C1E96D
:1006D00000200FB0BDE8F08FBD1B6D1CDEE74A4661
:1006E00000DA694206A800F067FA06AB93E8070053
:1006F00003AB83E8070050460A9903F021FF8DE819
:100700000700A0F500501F3800900398002D0ADD67
:1007100042F21F014A460844002303A90390684699
:1007200004F08AF909E0A0F500504A461F3800237A
:1007300003A90390684604F094F98DE807000004CB
:10074000000C03D04FF0FF30410800E01046B8F134
:10075000000F03D00022009215461EE0751E05D43E
:1007600000F08CF9303262556D1EF9D5B346012286
:10077000084302D000227F1C04E02078302801D1F9
:1007800000227F1E002A099784D01DE0112D07DA70
:1007900000F074F9303262556D1C50EA0102F5D157
:1007A000084302D00098C8B10EE00021681E05E0A1
:1007B000235C625C63542254401E491C8142F7DB77
:1007C000AB46A81B401E0990002004F80B000B98B4
:1007D000099AC0F80880C0E9002B7AE711264FF08B
:1007E000000857E72DE9F04F88460446D21D22F055
:1007F000070191B0D1E90001CDE90A0104F068FADE
:1008000002460B98C00F01D02D2007E02068810719
:1008100001D52B2002E0202101EAC000032A099023
:1008200001D0072A05DB03464146204600F084F943
:100830000BE12078800601D5E06900E00620B8F1E0
:10084000650F814606D0B8F1660F18D0B8F1670F72
:1008500070D131E00020B9F1110F009001DB1123BC
:1008600001E009F101030AAA01A90CA8FFF7E2FEC1
:10087000DDE90C70002609F10105834647E00120FF
:100880004B4600904FF000470AAA01A90CA8FFF7B9
:10089000D1FEDDE90DB00C995D46002610B909F1D5
:1008A00001000D18B9EB050003D4C0F1FF3609F1C2
:1008B0000105A5EB09002BE0B9F1010F01DA4FF0BA
:1008C00001090020B9F1110F0090484601DD112304
:1008D00000E003460AAA01A90CA8FFF7ABFEDDE978
:1008E0000C704D4600268346207800070AD4AB459D
:1008F00000DA5D4601A8012D04DD411911F8011C43
:10090000302907D04F4502DA17F1040F04DA01202D
:1009100082460FE06D1EEEE7002F02DCED1B3E4429
:1009200003E0781CA84200DD7D1CB81B00F1010A21
:100930004FF000472078000703D4AA4501DB4FF0B1
:10094000FF3A0021B7F1004F0DF143088DF8431035
:1009500024D002202B23002F01DA7F422D230A21ED
:10096000021EA0F1010000DC5FB197FBF1FC97FBD8
:10097000F1F201FB1C7C17460CF1300C08F801CD9C
:10098000EEE7A8F1010003702188090501D5452192
:1009900000E06521A0F1010800F8011C09980FA9E9
:1009A000A1EB0807FF1D00B10120411901EBEA701E
:1009B000A1693844081A401EA0612078C00602D4FC
:1009C0002046AFF30080099828B1D4E9012190476F
:1009D000206A401C20622078C00622D52046AFF352
:1009E00000801EE0002E04DBB34502DD01A8805D1F
:1009F00000E03020D4E901219047206A401C2062A9
:100A0000761CAAF101005FEA000A0AD100F032F870
:100A1000C0680168405CD4E901219047206A401C0D
:100A20002062281EA5F10105DCDC07E0D4E90121E4
:100A300018F8010B9047206A401C2062381EA7F16D
:100A40000107F3DC2046AFF30080032011B041E63C
:100A5000074B70B50D467B4400F05BF80446284612
:100A600000F01CF910B14FF0FF3070BD204670BD92
:100A700013350000004870474401002030B5B0F144
:100A80000A0271F100034FEA900E4EEA817EB0EB4C
:100A90000E0061EB91014FEA101E4EEA017E10EB51
:100AA0000E0041EB11114FEA102E4EEA016E10EBD1
:100AB0000E0041EB11214FEA104E4EEA014E10EBB1
:100AC0000E0041EB1141401841F100014FEAD00006
:100AD00040EA41704FEAD1014FEA810444EA907440
:100AE00010EB800544EB01046D1944EB0404521B28
:100AF000A3414FF0000348BF0A3200D530BD401C6F
:100B000041F1000130BD000001694A1C0261087812
:100B1000704700B58FB0CDE901310021059105493D
:100B20007944CDE9031011466846FFF765FC0FB024
:100B300000BD0000E5FFFFFF2DE9F0411F46044620
:100B400003260168072A01F4006004DB08B116A53A
:100B500005E016A503E008B115A500E015A521F0F4
:100B600010002060A069C01EA0610FB1401EA061EE
:100B70002046AFF300804FB1D4E9012138469047B9
:100B8000206A401C2062C01C206206E0206AFAE74E
:100B9000D4E9012115F8010B9047761EF8D22046C2
:100BA000AFF30080BDE8F0814E414E006E616E00F3
:100BB000494E4600696E66002DE9F04781461646AB
:100BC0008AB0354878440DC88DE80D003248784425
:100BD000801C03AC0DC884E80D0041F69B3008442E
:100BE000372190FBF1F290FBF1F5A5F1800501FBB7
:100BF00012041B3C02D56442012000E00020DFF813
:100C000098A080460027FA44AAF1BE0A0EE0E00749
:100C10000AD03246684607EB470101230AEB8101FF
:100C200003F01FFF8DE8070064107F1C002CEED13D
:100C3000194F7F44AE3F19E0E80715D007EB0410C9
:100C40000DF1180A90E80E008AE80E00C068F04224
:100C500001D1981908903246012306A903A803F090
:100C600000FF03AB83E807006D10641C002DE3D187
:100C70004FF0010332466946B8F1000F03A802D0D5
:100C800003F0DAFE01E003F0ECFEC9E90001C9F867
:100C900008200AB0BDE8F087344A0000007B00F06D
:100CA0008000704710B542485421FFF701FC4148CD
:100CB0005421FFF7FDFB40485421FFF7F9FB3F4962
:100CC0003B483C4A3F4B08603D490A603A4919603D
:100CD000531C0365481C1065012008653B48344AD5
:100CE00039A1784400F0EEF820B9384878440A3841
:100CF00000F08FF937482F4A35A1784400F0E2F828
:100D000020B9344878440A3800F083F932482A4A36
:100D10002FA1784400F0D6F820B92F4878440A383B
:100D200000F077F940232248DC000021224600F041
:100D3000A5F820B125487844543800F06AF91D48D8
:100D400022464023002100F099F820B12148784440
:100D5000543800F05EF9184822461023002100F0B4
:100D60008DF8002806D01C487844BDE8104056385D
:100D700000F04FB910BD104870B5006D20F00104AF
:100D80000B4800F017F90B4800F014F90A4800F07E
:100D900011F909E0206D20F00105204600F00AF964
:100DA000204600F044F82C46002CF3D170BD000022
:100DB000280000207C000020D0000020000000203F
:100DC0000400002008000020720000004E490000CE
:100DD000770000003D4900001649000000487047B8
:100DE000240100207546FFF7F9FFAE46050069466D
:100DF000534620F00700854618B020B5FFF73AFAB1
:100E0000BDE820404FF000064FF000074FF000080B
:100E10004FF0000BAC46ACE8C009ACE8C009ACE848
:100E2000C009ACE8C00921F007018D46704770B5D4
:100E30000446051F00F0F4F80068002C14BF446855
:100E400070BD002C18BFAC423CBF20466468F8D38C
:100E500001680A18AA4218BF456003D12A680546EE
:100E60001144016028684119A1421CBF6C6070BD2B
:100E70006168696021680844286070BD70B5C46805
:100E8000A50713D0650211D4B2F5807F09D0B2F561
:100E9000007F06D0B2F5806F08D1012300F1240154
:100EA00006E05D1E6FF07F46B54201D3012070BDA4
:100EB0000161C361416024F470611143C16000208D
:100EC00070BD00002DE9F0410C461646070047D0E2
:100ED000104600F06FF82078611C61280AD0722853
:100EE00002D077283CD102E00125002405E002254C
:100EF000042402E0082448F2020511F8010B2B2813
:100F000006D0622809D011F8010C74280AD00BE031
:100F100045F0030544F00204EFE745F0040544F012
:100F20000104EAE744F010043846214602F0AAF929
:100F3000411C15D00021316171604FF40071F560E2
:100F4000F1617061200704D530460222002100F0D3
:100F5000E1F8306D40F0010030653046BDE8F081C9
:100F60000020FBE72DE9F0410D460646104C206DB0
:100F7000C10704D0410804D020F00104F7E722465D
:100F80000EE0542000F097F807000ED0206D47F0D7
:100F900001010843542120653846FFF789FA3A4693
:100FA00029463046BDE8F0418CE70020D6E7000036
:100FB000280000202DE9F04704464FF0FF380026B6
:100FC000C568D4E90497A80718D0204600F05EF958
:100FD000384602F043F9002800DA4646280502D5D3
:100FE0004846FFF724FF4C212046FFF761FA206DA9
:100FF00020F0010020653046BDE8F0874046FBE761
:1010000010B50446AFF300802046BDE81040FFF75E
:101010001CB910B500F084F9BDE8104000F07AB9B1
:10102000004870472C010020704770477047704798
:1010300038B504460A4600206946AFF30080002810
:1010400008BF38BD02460099204600F090F9012003
:1010500038BD012000F0DFB9F8B5AFF300800546D8
:1010600000200C46102000BF0646A819A0420DD94A
:10107000324669460020AFF30080070008BF00F049
:10108000CAF90098A04218BF0546C419FFF7C8FF67
:1010900005600746F01D20F007004619284600F0BD
:1010A0005FF9B44208BFF8BDA21B31463868BDE8FD
:1010B000F84000F05CB970B50646FFF7B1FF05686F
:1010C00006F10B0020F00704B4429CBF002070BD65
:1010D0002B466A68BAB11068A04210D304F1080127
:1010E00088423CBF5068586007D35168101941606E
:1010F0001168091B016058601460101D70BD134613
:101100005268002AE7D121462846FFF791FF0028C0
:10111000DED170BD2DE9F041044616460D46476903
:10112000007B80072ED0384602F0A4F850BB3EB3B7
:10113000012E02D0022E25D104E0204600F031F924
:1011400005441DE0384602F093F8E168002841F0BC
:101150001001E16005DA204600F058F80120BDE8F2
:10116000F081C9030BD56268E16A914200D811464B
:10117000A26911442269891A814200DD08460544AA
:10118000002D01DA0220EAE7E16A6068E268814244
:1011900006D29103E06203D522F4003141F010023F
:1011A000A6690027AE4213DCE16A814201D90B46F1
:1011B00000E0034603EB060C2369ACEB030CAC45E3
:1011C00006DD814201D98C4600E084469C4505D16C
:1011D000A760276042F02000A5620DE0AD1BE66924
:1011E000AE1B8142A66000D90846C01A281A2060AA
:1011F0005819606022F0200003490840E060002098
:1012000084F84870ABE70000BFCFD7FFC16821F476
:10121000001141F08001C1600021816001607047D0
:101220002DE9F74F15460C464FF0FF3B3848D7687D
:10123000D2F814A0074209D05046A96902F054F828
:10124000002819DB3248C0430740EF604FF00049E7
:101250006FF000484C4501D3464600E02646009911
:101260003B465046324602F043F8A96920F000425E
:10127000B21A1144A96128B12846FFF7C7FF5846A2
:10128000BDE8FE8FA41BE5D10020F9E770B5044648
:101290000569C06A6168884200D80846E16821F49F
:1012A0002011E160C90312D5A84208D02246411B93
:1012B0002846FFF7B5FF10B14FF0FF3070BD00209A
:1012C000E562C4E90150E06820F48030E06000206D
:1012D00070BD10B50446C06820F02000E060A16A2F
:1012E000A06988420DD02046FFF7D0FFE06820F4C7
:1012F000405040F01000E060A06AA0612069E06208
:10130000606044F24001E0688843E06010BD000086
:1013100010000200002801D000F01CB87047000047
:1013200010B5014602A000F05DF8012010BD0000DC
:1013300053494752545245443A2052656469726594
:1013400063743A2063616E2774206F70656E3A2073
:101350000000000001491820ABBEFEE72600020095
:1013600000210160C0E9011070471020704703465A
:1013700040688C46002818BF88423CBF034640683E
:10138000F8D318681844884207D00CF1030020F005
:101390000700001D411A521A0146081D0A60FFF796
:1013A00046BD10B50146C268900703D0900607D528
:1013B000886A0AE000F03EF801210160881E10BD35
:1013C0008B69486818440B69C01A91F848301BB102
:1013D00091F84910401A10BD1103FCD50028FADD20
:1013E000401E10BD70B505460C460A2000E06D1C7D
:1013F00000F018F835B128780028F8D102E0641C14
:1014000000F010F814B120780028F8D1BDE8704041
:101410000A2000F007B810B500F010F8BDE8104041
:10142000FFF778BF08B569468DF800000320ABBE12
:1014300008BD7047004870472401002010B50128FE
:1014400005D0002103A0FFF7CDFF012010BD09A1A9
:10145000F8E7000053494752544D454D3A204F7527
:1014600074206F662068656170206D656D6F72799C
:10147000000000003A2048656170206D656D6F7254
:101480007920636F7272757074656400FEE7000006
:10149000704700004FF4804000F016B8B0B5044625
:1014A00000F0F8F8054640F20C00C2F200000078A7
:1014B000611C18BF044400BF00F0ECF8401BA042C0
:1014C000FAD3B0BD7047000043F61441C4F20101E5
:1014D0000A68024214BF08607047FFF7F3BF0000BC
:1014E0002DE9F04F82B000F13E4241F6004502F195
:1014F000FF77C4F20205082243F6004E4FEAB726F2
:10150000A84208BF0722C4F2010E072E38BF4FEAD7
:10151000B7220125002600274FF00008009208E0BE
:1015200008F101080437B8F1100F06F1020600F0C7
:10153000A7800C6805FA08F914EA090FF0D0D1F871
:1015400004B003220BF0030CACF10104B240012CF7
:101550006FEA020A10D88268CC6802EA0A02B44034
:10156000224382604268CBF3001422EA090204FAA3
:1015700008F42243426005E0BCF1030F02D14FF0B2
:10158000030C20E0C2688C6802EA0A02B4402243DD
:10159000BCF1020FC26016D16FF0030202EA5802DA
:1015A0000244D2F820C007F01C050F230C69AB40A1
:1015B0002CEA030304FA05F52B431362D1F804B0B7
:1015C00001250BF0030C02680CFA06F302EA0A028A
:1015D0001A431BF4403F0260A2D0002243F64403AA
:1015E0000192C4F202031A684FF6084C42F480429A
:1015F0001A601A68CFF6FF7C02F480420192019AC9
:1016000028F00302724452F80C3007F00C050F2446
:10161000AC40A343009C04FA05F52B4342F80C3080
:10162000DEF808204B6842EA090543F60C4CDC0260
:1016300058BF22EA0905CEF80850C4F2010CDCF8C4
:1016400000209C0242EA090558BF22EA0905CCF8AD
:101650000050DEF804209C0342EA090558BF22EA44
:101660000905CEF80450DEF80020DB0342EA090544
:1016700058BF22EA0905CEF80050012550E700BF07
:1016800002B0BDE8F08F0000002A08BF09048161A4
:101690007047000040F28430C2F2000000687047DA
:1016A00040F20C0040F28431C2F20000C2F20001AC
:1016B00000780A68104408607047000080B543F65F
:1016C0000040C4F20200016841F400710160016849
:1016D00041F480610160016841F480710160032080
:1016E00000F08AF8002000F005F800F027F800204C
:1016F00080BD000070B540F20C06C2F2000640F258
:1017000014013278C2F200014FF47A730968B3FB16
:10171000F2F20446B1FBF2F1084600F0A1FF0F2CF3
:101720004FF0010508D838B94FF0FF3021460022AC
:10173000002500F035F87460284670BD82B00020A6
:1017400043F640010190C4F202014A6842F480422B
:101750004A604A6802F480420192019A0090086847
:1017600040F080500860086800F0805000900098B9
:10177000072002B000F040B8002848BF7047C1B24F
:1017800000F01F00012202FA00F04EF20012CEF229
:10179000000242EAD10121F0030108607047000015
:1017A00010B54EF60C5CCEF2000CDCF80030C3F342
:1017B000022E8EF00704042C28BF0424BEF103037C
:1017C0004FF0FF3E0EFA04F438BF0023A1439940C6
:1017D0000EFA03F39A43114300F00F0200F1604345
:1017E0000901043A03F564436244002848BF02F14A
:1017F0000C03197010BD00004EF60C51CEF2000122
:101800000A684FF6FF031A4060F30A2242F0806034
:1018100040F0FD70086070472DE9F041002800F0AD
:101820008B8043F60808C4F202080446D8F8F8038F
:101830000D4600F00700884207D288F8F853D8F820
:10184000F80300F00700A84276D12068810717D579
:10185000410705D5D8F8001041F4E051C8F8001050
:10186000010705D5D8F8001041F46041C8F8001010
:10187000D8F80010A26821F0F0011143C8F8001058
:10188000C0073FD1D8F8F80300F00700A84207D9F5
:1018900088F8F853D8F8F80300F00700A8424BD1B5
:1018A0002068410707D5D8F80010E26821F4E0511C
:1018B0001143C8F80010000708D5D8F800002169C6
:1018C00020F4604040EAC100C8F8000000F07CF855
:1018D000D8F8001045F21462C1F30311C0F60002FB
:1018E000515C40F2140220FA01F140F21000C2F201
:1018F00000000068C2F200021160FFF7FBFE00204A
:10190000BDE8F0816068811E022907D258F8081CE2
:1019100089015CBF0120BDE8F08111E0012807D1F9
:1019200058F8081C89035CBF0120BDE8F08107E07E
:1019300058F8081C890703D40120BDE8F08100BFD6
:10194000D8F8001021F003010843C8F80000FFF7A1
:10195000A1FE064641F28837D8F80000616800F021
:101960000C00B0EB810F8DD0FFF794FE801BB842C6
:10197000F2D90320BDE8F08140F2140043F60801DB
:10198000C2F20000C4F202010068096845F2246254
:10199000C1F38221C0F60002515CC84070470000CC
:1019A00040F2140043F60801C2F20000C4F2020142
:1019B0000068096845F22462C1F34231C0F60002B2
:1019C000515CC8407047000010B543F60404C4F2EF
:1019D0000204606800F00C0142F200400829C0F2E5
:1019E000F40007D0042918BF10BD41F20020C0F256
:1019F0007A0010BD216801F03F0221682368490286
:101A0000C3F3881106D4A1FB00010023FEF744FCB8
:101A100007E000BF41F20020C0F27A004843B0FB6B
:101A2000F2F021680222C1F3014102EB4101B0FB57
:101A3000F1F010BD2DE9F04182B0002868D00446D5
:101A4000007843F60006C007C4F202060BD0B06867
:101A500000F00C00042840F09F803068800302D51D
:101A60006068002854D0207880071AD5B06810F03C
:101A70000C0F09D0B06800F00C00082840F0A680D8
:101A80007068400200F1A2803068800702D5E068EB
:101A900001283DD13068216920F0F80040EAC100FA
:101AA00030602078000737D4207840074CD4A569EF
:101AB00055B3B06800F00C00082840F0BB80012D41
:101AC00026D07068E16900F480028A4220D1216A40
:101AD00000F03F028A421BD147F6C071626A0140A2
:101AE000B1EB821F14D1A16A4FF6FF73C90399436A
:101AF00000F44032A1F580318A4209D1E16A00F058
:101B00007060B0EB016F03D1002002B0BDE8F0813E
:101B1000012002B0BDE8F0816069002840F20000B9
:101B2000C4F2472076D00121C0F8801EFFF7B2FD35
:101B3000054600BF706F8007B6D4FFF7ABFD401BB2
:101B40000228F7D9DDE000BF306C10F080580AD1D0
:101B500000200190306C40F080503064306C00F018
:101B600080500190019847F20007C4F200073868DE
:101B7000C00541D4386840F480703860FFF78AFDB2
:101B8000054600BF3868C00536D4FFF783FD401B0B
:101B90000228F7D9B5E000BFB06800F00C000828B3
:101BA00003D1706840023FF558AF6068B0F5803FE0
:101BB00007D0B0F5A02F40F08D80306840F4802031
:101BC0003060306840F4803030608DE0E06800289C
:101BD00052D00020C4F2472001210160FFF75AFDD6
:101BE000054600BF306880073FF554AFFFF752FD50
:101BF000401B0228F6D984E0A068012805D00528FA
:101C00004ED1306F40F004003067306F40F001007B
:101C100030674FE00021C0F8801EFFF73BFD05460E
:101C2000706F80077FF540AFFFF734FD401B02283F
:101C3000F6D966E00027C4F2472700203866FFF790
:101C400029FD022D05460BD1306880015ED5FFF7D6
:101C500021FD401B02284FF00300F5D955E700BFD6
:101C6000306880017FF550AFFFF714FD401B02285C
:101C70004FF00300F4D948E70020C4F247200021C8
:101C80000160FFF707FD0546306880077FF509AF63
:101C9000FFF700FD401B02284FF00300F4D934E7A2
:101CA000316F002821F001013167316F21F004010B
:101CB00031674DD0FFF7EEFC054641F2883700BF93
:101CC000306F800756D4FFF7E5FC401BB842F7D9C8
:101CD00017E000BF3168002821F48031316031689D
:101CE00021F4802131604FD0FFF7D4FC054600BFBE
:101CF000306880033FF5B7AEFFF7CCFC401B64288B
:101D0000F6D9032002B0BDE8F08100BF04F11C0544
:101D10002FCD084340EA8210D9034FF6FF7291435A
:101D2000A1F5803140EA0560084370600120386603
:101D3000FFF7B0FC044600BF306880013FF5E4AE19
:101D4000FFF7A8FC001B02284FF00300F4D9DCE6E3
:101D5000FFF7A0FC054641F2883700BF306F8007CF
:101D600008D5FFF797FC401BB8424FF00300F5D9A8
:101D7000CBE600BFB8F1000F7FF499AE306C20F0D5
:101D80008050306493E600BFFFF784FC054600BF37
:101D9000306880037FF567AEFFF77CFC401B64284A
:101DA0004FF00300F4D9B0E670B538B10446406A8C
:101DB00030B10020206104F1140007E0012070BD63
:101DC0006068B0F5827F03D004F11C00002101603F
:101DD0000026A66294F8510020B9204684F850608D
:101DE00000F03CF8022084F8510094E80F0001F460
:101DF0008271056802F4044225F040050560114433
:101E000003F400622369114403F002026369114480
:101E100003F00102A369E569114403F4007211445F
:101E200005F03802256A114405F08002A56A1143C5
:101E300005F4005211430160626A042101EA134172
:101E400002F0100211444160C16921F40061C161D6
:101E50000120666584F85100304670BD2DE9F043DD
:101E600085B0006843F60005C4F20005A84203D01F
:101E700005B0BDE8F08300BF002643F630000096B1
:101E8000C4F2020001696C4641F4804101610169BC
:101E90004FF0020801F4804100910099009601681A
:101EA0004FF0030941F0040101600168052701F0CA
:101EB0000401009100990096016841F0020101605F
:101EC0000068214600F00200009000980C2000906D
:101ED00005F5E830CDE90186CDF80C900497FFF7C1
:101EE000FFFA4FF48060CDE9000805F5E6302146A1
:101EF000CDE902690497FFF7F3FA05B0BDE8F08376
:101F00002DE9F04381B0044640681D461746B0F500
:101F1000827F0E4601D1A068E0B394F850000128FA
:101F200004D1022001B0BDE8F08300BF4FF00109E9
:101F300084F85090FFF7AEFB94F85110012927D197
:101F40008046002E4FF0010018BF002F00F0C9801E
:101F50000420002184F851006165A663A787E78704
:101F60002163A186E186A2682068B2F5004F216452
:101F700061644BD00168490653D5E168E08F0029C0
:101F800057D0002800F08680681C1CD12DE000BFCF
:101F90000220A6E0042084F8510020463146324653
:101FA0003B46009500F0D0F901B0BDE8F08300BFDA
:101FB000C068A16B21F8020BA163E08F0138E087B4
:101FC000E08F002866D020688168C907F0D1FFF74C
:101FD00061FBA0EB0800A842F2D3032081E000BF20
:101FE000FFF758FBE08F002854D020688168C907AC
:101FF000F6D0C068A16B21F8020BA163E08F013815
:10200000E087E08F0028F0D144E000BF016821F0B4
:1020100040010160016821F48041016001684906C6
:10202000ABD4016841F040010160E168E08F002914
:10203000A7D178B3681C0CD11CE000BF007BA16B5A
:102040000870A06B0130A063E08F0138E087E08F5B
:1020500000B320688168C907F0D1FFF71BFBA0EB34
:102060000800A842F3D303203BE000BFFFF712FBB8
:10207000E08F78B120688168C907F7D0007BA16B39
:102080000870A06B0130A063E08F0138E087E08F1B
:102090000028EFD16068B0F5827F0ED1A068B0F55E
:1020A000004F02D0B0F5806F0AD12168B0F5806F83
:1020B0000A6822F040020A6002D12046012101E0B4
:1020C000204680212A46434600F030FF28B1606D4B
:1020D00040F02000606520206065606D002818BF1A
:1020E0000120002184F8519084F8501001B0BDE81F
:1020F000F08300002DE9F04383B0044690F85000CF
:10210000012803D1022003B0BDE8F0834FF001099C
:102110001D4616460F4684F85090FFF7BBFA94F818
:102120005110012944D18046002F4FF0010018BF03
:10213000002E00F0D6800320002184F85100616554
:102140002763A686E686A163A187E187A06821644C
:10215000B0F5004F2068616407D1016821F04001AB
:102160000160016841F4804101600168490603D4BF
:10217000016841F0400101606168731EE268B1FAD4
:1021800081F1B3FA83F349095B09B2F5006F41EAC3
:1021900003013DD131B137F8021BC1602763E08EE6
:1021A0000138E086E08E00286CD0681C0DD11EE05E
:1021B000022096E0216B31F8022BC2602163E08E91
:1021C0000138E086E08E00285CD0206881688907AD
:1021D000F0D4FFF75FFAA0EB0800A842F2D3032087
:1021E0007FE000BFFFF756FAE08E00284AD0206853
:1021F00081688907F6D5216B31F8022BC260216313
:10220000E08E0138E086E08E0028F0D13AE000BF91
:1022100039B139780173206B01302063E08E0138C9
:10222000E086E08E70B3681C0BD11BE0216B09784F
:102230000173206B01302063E08E0138E086E08E70
:1022400000B3206881688907F0D4FFF723FAA0EB78
:102250000800A842F3D3032043E000BFFFF71AFAB7
:10226000E08E78B1206881688907F7D5216B0978FD
:102270000173206B01302063E08E0138E086E08E30
:102280000028EFD140F21400C2F20000006849F6C5
:102290008171C1F25E61A0FB0101480D4FF47A71BA
:1022A000484302906068B0F5827F23D120468021A8
:1022B0002A46434600F03AFE28B1606D40F0200007
:1022C000606520206065A06838B900200190206812
:1022D000C1680191806801900198606D002818BF65
:1022E0000120002184F8519084F8501003B0BDE81B
:1022F000F08300BF02980028E5D0029801380290D0
:10230000206880680006DED502980028DBD002989D
:1023100001380290206880680006D4D50298002811
:10232000D1D0029801380290206880680006CAD592
:1023300002980028C7D0029801380290206880686F
:102340000006D7D4BFE700002DE9F04383B0044670
:1023500090F85000012803D1022003B0BDE8F083BB
:1023600001201E4615460F4684F85000FFF792F9EB
:1023700094F851108146012940F09880002F4FF0C9
:10238000010018BF002D00F09E80002E00F09B8001
:1023900094F85100002104281CBF052084F8510046
:1023A0006165A563E687A6872763E6862068A6861B
:1023B000216461640168490603D4016841F0400169
:1023C00001606168731EE268B1FA81F1B3FA83F3C8
:1023D000DDF8288049095B09B2F5006F41EA030185
:1023E0007AD131B137F8021BC1602763E08E013822
:1023F000E086012518F1010031D101E0FFF74AF92B
:10240000E08E18B9E08F002800F0D0802068816845
:1024100089070CD5E18E51B1012D08D1216B002522
:1024200031F8022BC2602163E18E0139E1868168B7
:10243000C907E3D0E18F0029E0D0C068A16B012576
:1024400021F8020BA163E08F0138E087D6E700BFD7
:10245000FFF720F9A0EB0900404580F0FD80E08EF9
:1024600018B9E08F002800F0A180206881688907F2
:102470000CD5E18E51B1012D08D1216B002531F829
:10248000022BC2602163E18E0139E1868168C907B0
:10249000DED0E18F0029DBD0C068A16B012521F8D7
:1024A000020BA163E08F0138E087D1E76068B0F5E7
:1024B000827F07D1A06800284FF0020008BF0429DE
:1024C00001D15BE70220012184F85110002184F83A
:1024D000501003B0BDE8F08339B139780173206B37
:1024E00001302063E08E0138E086012518F10100FB
:1024F00033D101E0FFF7CEF8E08E10B9E08F00286D
:1025000054D02068816889070ED5E18E61B1012D14
:102510000AD1216B002509780173216B20680131F4
:102520002163E18E0139E1868168C907E2D0E18F3C
:102530000029DFD0C068A16B01250870A06B0130B5
:10254000A063E08F0138E087D4E700BFFFF7A2F86F
:10255000A0EB0900404580F08180E08E08B9E08F53
:1025600020B32068816889070ED5E18E61B1012D05
:102570000AD1216B002509780173216B2068013194
:102580002163E18E0139E1868168C907DED0E18FE0
:102590000029DBD0C068A16B01250870A06B013059
:1025A000A063E08F0138E087D0E700BF40F214005D
:1025B000C2F20000006849F68171C1F25E61A0FBC1
:1025C0000101480D4FF47A71484302906068B0F5FC
:1025D000827F0FD12046802142464B4600F0A6FC68
:1025E00060B3606D40F020006065202060650120D0
:1025F00069E700BF029808B302980138029020688A
:10260000806800061AD50298C0B10298013802907D
:1026100020688068000611D5029878B102980138C8
:10262000029020688068000608D5029830B10298B0
:1026300001380290206880680006DBD4A06800287A
:102640004FF000007FF43FAF01902168CA6801920B
:1026500089680191019936E7032034E7032032E7C6
:10266000411E0020B0EB116F1CBF012070474EF2DD
:102670001002CEF2000251604EF62351CEF200015C
:10268000F0230B70072190601160704710B590F82F
:102690003C20012A4FF0020251D080F83D20026810
:1026A000D2F804E0D2F808C00C682EF0700323437F
:1026B00041F2FF74C4F20004A24253600EDC40F207
:1026C000FF73C4F200039A4216DCB2F1804F2BD0A4
:1026D00040F20043C4F2000324E000BF40F2FF33A5
:1026E000C4F201039A4213DC41F60003C4F2000372
:1026F0009A4219D0002313E040F60003C4F200030D
:102700009A4211D040F60043C4F200030AE000BF31
:1027100044F20003C4F201039A4205D040F20043A0
:10272000C4F201039A4204D149682CF08003194392
:1027300091600121002280F83D1080F83C20104675
:1027400010BD0000002804BF0120704710B50446EA
:1027500090F83D0028B9002084F83C00204600F0A5
:102760001FF8022084F83D002068211D00F05EFC67
:10277000012084F8460084F83E0084F83F0084F885
:10278000400084F8410084F8420084F8430084F853
:10279000440084F8450084F83D00002010BD00008E
:1027A00080B586B0016840F60000C4F200008142A6
:1027B00002D006B080BD00BF002143F63002019177
:1027C000C4F20202136900F5FE3043F00403136102
:1027D000136903F004030193019B0191136843F013
:1027E00002031360126802F002020192019A402271
:1027F00001920222CDE90221CDE9041201A9FEF7DE
:102800006FFE06B080BD000080B590F83C20012A24
:102810004FF0020200F0C28080F83D20D0F800C0E6
:102820004FF67772DCF8083023EA0202CCF8082071
:102830000B684F2B28DC1F2B44DD202B45D0302B81
:1028400043D0402B40F0AC80D1F804E0C968DCF8FC
:102850002030DCF8202022F00102CCF82020DCF827
:10286000182022F0F00242EA011123F00A0242EAA3
:102870000E02CCF81810CCF82020DCF8081041F03B
:10288000470121F0300180E06F2B27DDB3F5005FB9
:1028900048D0B3F5805F7AD0702B40F08180D1E9C9
:1028A00001E3C968DCF8082043EA0E0322F47F4202
:1028B00043EA01211143CCF80810DCF8081041F07C
:1028C000770162E00BB1102B6AD1DCF8081021F01F
:1028D0007001194341F0070157E000BF502B35D07C
:1028E000602B5DD1D1F804E0C968DCF8203023F01A
:1028F0001003CCF82030DCF81830DCF8202023F46A
:10290000704322F0A00243EA013142EA0E12CCF8F1
:102910001810CCF82020DCF8081041F0670121F0F5
:10292000100132E0D1E901E3C968DCF8082043EA8C
:102930000E0322F47F4243EA01211143CCF8081030
:10294000DCF8081041F480411FE000BFD1F804E03A
:10295000C968DCF82030DCF8202022F00102CCF835
:102960002020DCF8182022F0F00242EA011123F0C6
:102970000A0242EA0E02CCF81810CCF82020DCF84B
:10298000081041F0570121F02001CCF80810002276
:10299000012180F83D10002180F83C10104680BDD8
:1029A0000122F5E7F0B590F83C30012B04BF02207E
:1029B000F0BD4FEAB202032A28D8DFE802F0032D67
:1029C0004B6B00BF0368D1E900C5D1F80CE01A6A6F
:1029D00041F2FF7722F001021A621A4652F8186F8C
:1029E0001C6AC4F20007BB427ADC40F2FF77C4F2F3
:1029F0000007BB4200F38280B3F1804F00F0968065
:102A000040F20047C4F200078EE000BF012100221F
:102A100080F83C200846F0BD0368D1E900E6D1E922
:102A200002C11A6A360222F010021A621A4652F8DD
:102A3000184F4FF2FF071D6ABE4324F4734461F33D
:102A40000F3646EA040125F0A0040EF00A0744EA16
:102A500007173CE00768D1E900C5D1E902313A6ABD
:102A600061F3071522F480723A623A4652F81C4F1D
:102A70003E6A24F0F30445EA040126F420660CF0D3
:102A80000A0546EA052611603E62116821F00C0134
:102A900011605CE00368D1E900E6D1E902C11A6A7D
:102AA000360222F480521A621A4652F81C4F4FF234
:102AB000FF071D6ABE4324F4734461F30F3646EAF0
:102AC000040125F420440EF00A0744EA0737116098
:102AD0001F6211684FEA0C2321F44061116036E057
:102AE00040F2FF37C4F20107BB4213DC41F6000796
:102AF000C4F20007BB4219D0002713E040F60007DC
:102B0000C4F20007BB4211D040F60047C4F20007F0
:102B10000AE000BF44F20007C4F20107BB4205D03F
:102B200040F20047C4F20107BB4219D126F0030668
:102B3000354324F00A070CF00A066EF307153744F4
:102B40009D611F629F6927F00C079F618B68116868
:102B5000194311600021002280F83C200846F0BD96
:102B600046F00105E5E70000002804BF012070479A
:102B700010B5044690F83D0028B9002084F83C00C8
:102B8000204600F01FF8022084F83D002068211D37
:102B900000F04CFA012084F8460084F83E0084F8E6
:102BA0003F0084F8400084F8410084F8420084F833
:102BB000430084F8440084F8450084F83D00002078
:102BC00010BD000070470000002804BF01207047BE
:102BD00010B5044690F83D0028B9002084F83C0068
:102BE000204600F021F8242084F83D002068C168C8
:102BF00021F40051C160204600F0B6FA2068016956
:102C000021F490410161416921F02A014161C168CB
:102C100041F40051C16000202021206484F83D105F
:102C200084F83E1010BD000080B586B0016841F206
:102C30000040C4F20100814202D006B080BD00BF56
:102C4000002143F630020191C4F20202536900F5FB
:102C5000744043F020035361536903F02003019350
:102C6000019B0191136843F004031360126802F0A2
:102C700004020192019AC02201920222CDE90221AE
:102C8000032104910821059101A9FEF729FC06B052
:102C900080BD00002DE9F04381B0044690F83D006E
:102CA00020280DD10F4600294FF0010000F0DD80F3
:102CB0001646002A00F0D98094F83C00012803D180
:102CC000022001B0BDE8F083012084F83C00002020
:102CD000206421201D4684F83D00FEF7DBFCA6841D
:102CE000E684A1680646B1F5805F03D1206900281B
:102CF00000F01081B8460027002084F83C00E18CE9
:102D00002068002900F0908005F101090DE000BF66
:102D1000B8F1000F28D018F8011B4160E18C01398F
:102D2000E184E18C002900F07F8001680906EFD47E
:102D3000B9F1000F0AD0FDB1FEF7ACFC801BA84230
:102D40001AD8206801680906F6D5E1E70168090686
:102D5000DED4016809065CBF01685FEA0161D7D46F
:102D600001680906F2D5D3E737F8021B4FF00008D7
:102D70006FF35F21D1E700BF206850E8030F21689F
:102D800020F4D07041E80302BAB3206850E8030F82
:102D9000216820F4D07041E8030272B3206850E843
:102DA000030F216820F4D07041E803022AB32068A1
:102DB00050E8030F216820F4D07041E80302002A94
:102DC000DAD11AE0206850E8050F216820F00100F0
:102DD00041E80502DAB1206850E8050F216820F0CB
:102DE000010041E8050292B1206850E8050F216812
:102DF00020F0010041E805024AB1206850E8050FC3
:102E0000216820F0010041E80502002ADAD12020E3
:102E100084F83D0084F83E00002084F83C00032044
:102E200001B0BDE8F08300BF0168490619D4FDB1C7
:102E3000691C0DD10168490613D4016849065CBFBD
:102E400001685FEA41610CD401684906F2D508E0E7
:102E5000FEF720FC801BA8420AD8206800684006C4
:102E6000F6D5202084F83D00002001B0BDE8F083B5
:102E7000206850E8030F216820F4D07041E8030275
:102E8000E2B3206850E8030F216820F4D07041E8D5
:102E900003029AB3206850E8030F216820F4D07031
:102EA00041E8030252B3206850E8030F216820F480
:102EB000D07041E80302002ADAD11FE0206850E810
:102EC000050F216820F0010041E80502002A9ED08C
:102ED000206850E8050F216820F0010041E8050254
:102EE000002A3FF494AF206850E8050F216820F0D5
:102EF000010041E80502002A3FF489AF206850E84C
:102F0000050F216820F0010041E80502002AD5D113
:102F10007DE700BF4FF00008EEE60000FEE700008E
:102F2000FEE70000FEE70000704700002DE9F041D9
:102F300082B01E4690460D460446FEF7ABFB301AA3
:102F400000EB0807FEF7A6FB40F21401C2F20001F5
:102F50000968C1F3CB317943019121688A682A401D
:102F6000AA4227D1064618F101001FD0FEF792FBB6
:102F7000801BB84222D2019801990028A1F10101D9
:102F800001912168896808BF074601EA0500A84247
:102F9000ECD00FE088682840A8420BD18868284010
:102FA000A84207D188682840A84203D188682840F1
:102FB000A842EFD0002002B0BDE8F081D4E90001C2
:102FC0004268B1F5827F22F0E00242600AD1A16836
:102FD000B1F5004F02D0B1F5806F03D1016821F047
:102FE00040010160A16AB1F5005F07D1016821F4D9
:102FF00000510160016841F400510160012084F832
:103000005100002084F85000032002B0BDE8F08198
:1030100070470000FEF744BB4EF68850CEF2000029
:10302000016841F4700101607047000010B540F67E
:10303000FF3E0368C4F2000E40F2004C7045C4F23B
:10304000010C27DCB0F1804F31D040F20042C4F2D5
:10305000000290422BD040F60002C4F200029042DF
:1030600025D041F6FF72C4F20002904229DC70457F
:103070003CDCB0F1804F5FD040F20042C4F200026D
:10308000904259D040F60002C4F20002904253D060
:1030900056E000BF40F60042C4F20002904206D063
:1030A000604504D00022C4F201029042D9D14A689E
:1030B00023F07003134341F6FF72C4F20002904202
:1030C000D5DD43F6FF72C4F20102904222DC42F2E7
:1030D0000002C4F2000290422ED00022C4F201028B
:1030E000904229D0604527D02AE000BF40F6004238
:1030F000C4F2000290421FD041F60002C4F2000266
:10310000904219D041F60042C4F20002904213D01E
:1031100016E000BF44F20002C4F2010290420BD05C
:1031200044F60002C4F20102904205D044F200428B
:10313000C4F20102904203D1CA6823F440731343DE
:1031400023F080024B69D1F800E08C681A430260DA
:10315000C46240F48062C0F828E0624504BF096997
:1031600001630121416110BD10B504460068D4E936
:1031700002C22369016921F440511143016162696E
:1031800043EA0C01E3691143C268194349F20C6335
:103190009A431143C1604169A26921F4407141F22F
:1031A0000043114340F48062C4F201039A4241613A
:1031B00002D1FEF7F5FB01E0FEF7DEFBE169636893
:1031C0001922B1F5004FA0FB020123D15A00DB0FF9
:1031D000FDF762F848F21F51C5F2EB11A0FB012385
:1031E0005A094FF69C73C0F6FF7303F1805302FB3C
:1031F0000300322303EBC000A0FB01014FF4F87081
:1032000000EA111000EB0210C1F3421108442168DA
:10321000886010BD9A009B0FFDF73EF848F21F51E1
:10322000C5F2EB11A0FB01235A094FF69C73C0F6BF
:10323000FF7302FB0300322303EB0010A0FB01012C
:10324000F02000EA511000EB0210C1F343110844D2
:103250002168886010BD0000FEE7000048F204010C
:10326000411A002011F1030F38BF4FF0FF307047B3
:103270000020704748F20101411A0020032938BF9D
:103280000120704710B518B3044600783A281FD1C2
:1032900045F23461C0F600012046FDF731F9D8B19E
:1032A00045F23B61C0F600012046FDF729F9B8B1AF
:1032B00045F22C61C0F600012046FDF721F90146D8
:1032C0004FF0FF30002908BF48F2030010BD00BFD7
:1032D0004FF0FF3010BD00BF48F2010010BD00BF2D
:1032E00048F2020010BD00004FF0FF3070470000B0
:1032F00070B548F2030398422ED048F20203984278
:1033000058D1002A00F0988140F6006CCEF2000CF3
:1033100012F00304A2F1010E50D00B4613F8010B7A
:10332000DCF88050ED071CBFDCF800505FEAC57583
:103330004CD1012C704600F08E804878DCF880304B
:10334000DB071CBFDCF800305FEAC37364D1022CDA
:1033500073D18B1C901E7EE0002A00F06D8140F638
:10336000006CCEF2000C12F00304A2F1010E29D081
:103370000B4613F8010BDCF88050ED071CBFDCF89E
:1033800000505FEAC57533D1012C704600F0EC8027
:103390004878DCF88030DB071CBFDCF800305FEADF
:1033A000C37340F0C380022C40F0D1808B1C901E70
:1033B000DAE000BF4FF0FF3070BD00BF10460B4693
:1033C00049E000BF10460B46CEE000BF4FF060451D
:1033D0002E6836B92E6826B92E6816B92E68002ECA
:1033E000F6D04FF060452870012C704633D0A4E72A
:1033F0004FF060452E6836B92E6826B92E6816B98A
:103400002E68002EF6D04FF060452870012C7046D3
:1034100000F0AA80BCE700BF4FF060431D6835B9DB
:103420001D6825B91D6815B91D68002DF6D04FF02F
:1034300060431870022C3FF48CAF8878DCF8803041
:10344000DB0701F103031CBFDCF800105FEAC17168
:1034500040F0F480D01EBEF1030F3CBF002070BDD1
:103460004FF0604107E000BF0A7000BF043803F16D
:10347000040300F0E1801A78DCF88060F6071CBFD6
:10348000DCF800605FEAC6762CD15A78DCF8806000
:10349000F6071CBFDCF800605FEAC6762ED19A788A
:1034A000DCF88060F6071CBFDCF800605FEAC676D7
:1034B00030D1DA78DCF88060F6071CBFDCF80060F9
:1034C0005FEAC676D2D000BF0E68002ECCD10E685F
:1034D000002EC9D10E68002EC6D10E68002EF3D082
:1034E000C2E700BF0E6836B90E6826B90E6816B975
:1034F0000E68002EF6D00A70C7E700BF0E6836B916
:103500000E6826B90E6816B90E68002EF6D00A703D
:10351000C5E700BF0E6836B90E6826B90E6816B941
:103520000E68002EF6D00A70C3E700BF4FF060436C
:103530001D6835B91D6825B91D6815B91D68002DB0
:10354000F6D04FF060431870022C3FF42FAF88780C
:10355000DCF88030DB0701F103031CBFDCF800104E
:103560005FEAC1717AD1D01EBEF1030F3CBF0020CB
:1035700070BD4FF0604105E00A7000BF043803F1F0
:10358000040359D01A78DCF88060F6071CBFDCF819
:1035900000605FEAC6762BD15A78DCF88060F607C7
:1035A0001CBFDCF800605FEAC6762DD19A78DCF8A3
:1035B0008060F6071CBFDCF800605FEAC6762FD19A
:1035C000DA78DCF88060F6071CBFDCF800605FEAA0
:1035D000C676D3D00E68002ECED10E68002ECBD189
:1035E0000E68002EC8D10E68002EF3D0C4E700BFCD
:1035F0000E6836B90E6826B90E6816B90E68002E28
:10360000F6D00A70C8E700BF0E6836B90E6826B952
:103610000E6816B90E68002EF6D00A70C6E700BF15
:103620000E6836B90E6826B90E6816B90E68002EF7
:10363000F6D00A70C4E700BF002070BD4FF06041B3
:103640000C6834B90C6824B90C6814B90C68002CE7
:10365000F6D04FF060410870FCE600BF4FF06041CB
:103660000C6834B90C6824B90C6814B90C68002CC7
:10367000F6D04FF06041087075E7000000000000D0
:103680002DE9F04F81B02DED028B8CB040F2F01897
:10369000C2F2000898F8300098F8311098F83220FB
:1036A000000440EA01201044C8F8000098F85700D0
:1036B00098F85810000498F8592040EA012098F82A
:1036C00036301044C8F8180098F83700190498F8F4
:1036D000382041EA00201044C8F8040098F85D0042
:1036E00098F85E10000498F85F2040EA012010442A
:1036F000C8F81C0098F83C0098F83D10000498F8B1
:103700003E2040EA01201044C8F8080098F8630001
:1037100098F86410000498F8652040EA01201044ED
:10372000C8F8200098F8420098F8431098F8442010
:10373000000440EA01201044C8F80C0098F8690021
:1037400098F86A10000498F86B2040EA012098F875
:1037500048301044C8F8240098F84900190498F833
:103760004A2041EA0020104498F84E30C8F8100072
:1037700098F86F0098F84F7098F870101B0498F83C
:103780005060000498F8712043EA072340EA0120C2
:1037900033441044C8F8143098F87530C8F828003D
:1037A00098F8330098F8767098F834101B0498F85D
:1037B000776098F8352043EA07230004334440EA51
:1037C000012040F288161044C2F20006306498F8D6
:1037D0005A0098F85B10000498F85C2040EA012039
:1037E0001044706598F8390098F83A1098F83B2022
:1037F000000440EA01201044706498F8600098F8D2
:10380000611098F86220000440EA01201044B0657D
:1038100098F83F0098F8401098F84120000440EADA
:1038200001201044B06498F8660098F8671098F882
:103830006820000440EA01201044F06598F8450033
:1038400098F8461098F84720000440EA01201044F8
:10385000F06498F86C0098F86D1098F86E200004E9
:1038600040EA01201044306698F84B0098F84C105C
:1038700098F84D20000440EA01201044306598F883
:10388000720098F8731098F87420000440EA012040
:103890001044706698F8510098F8521098F8532028
:1038A000000440EA012098F87810104498F8792034
:1038B000C8F82C3098F87A30090441EA02211944FA
:1038C000316298F8541098F8552098F85630090449
:1038D00041EA022198F87B20194498F87C3098F846
:1038E0007D70120442EA03223A44B06172620222FD
:1038F000081AF161327001F01BFC9FEDFB0B0246D0
:103900000B4651EC100BCDE9060101F0B7FA044665
:103910000D460991D8E9000196ED028B401A0591F8
:1039200001F006FC8246306C8B4601F001FC9FEDF5
:10393000F00B53EC109B4A460B93CDF8289001F006
:103940000FFC06460F465046594622462B46A346D4
:1039500001F006FC32463B4601F0E8F9024641EC34
:10396000100B40F27020C2F200000B4680ED000BFD
:1039700051EC180B01F0DAF904900391D8F80850D3
:103980000598401B01F0D4FB824640F28810C2F239
:103990000000406C0F4601F0CBFB0B9E4A463346BD
:1039A00001F0DEFBCDF820B0099B04468946504665
:1039B00039465A4601F0D4FB22464B4601F0B6F98F
:1039C000024641EC100B40F27020C2F200000B46A0
:1039D00080ED020BDDE9031001F0A8F90490D8F89E
:1039E0000C000590281A039101F0A2FB824640F2D8
:1039F0008810C2F20000806C894601F099FB0A9F92
:103A000033463A4601F0ACFB099E04460D4650464B
:103A100049465A46334601F0A3FB22462B4601F0A5
:103A200085F9024641EC100B40F27020C2F2000012
:103A30000B4680ED040BDDE9031001F077F90490EB
:103A40000391D8F810B00598A0EB0B0001F070FBC3
:103A5000824640F28810C2F20000C06C894601F034
:103A600067FB0B9B3A4601F07BFB0D464946DDF8B0
:103A70002090044650464A46334601F071FB2246E8
:103A80002B4601F053F9024641EC100B40F2702036
:103A9000C2F200000B4680ED060BDDE9031001F0D9
:103AA00045F90490D8F814000590ABEB00000391A1
:103AB00001F03EFB834640F28810C2F20000006D28
:103AC0008A4601F035FB0A9F0B9E3A46334601F0C9
:103AD00047FB4A46DDF8249004460D4658465146B9
:103AE0004B4601F03DFB22462B4601F01FF90246F2
:103AF00041EC100B40F27020C2F200000B4680ED4A
:103B0000080BDDE9031001F011F904900391D8F8D6
:103B100018000599081A01F00BFB834640F2881043
:103B2000C2F20000406D8A4601F002FB3A4633467D
:103B300001F016FB089A04460D46584651464B467E
:103B400001F00EFB22462B4601F0F0F8024641EC54
:103B5000100B40F27020C2F200000B4680ED0A0B01
:103B6000DDE9031001F0E2F89FEDDB0B53EC102BC5
:103B7000CDE9042301F082F941EC100B40F28814E6
:103B80000246C2F20004DCA00B4684ED020BFCF7F7
:103B9000FBFBD4E90810401A01F0CAFA02460B46B2
:103BA000DDE9060101F06AF908900F460991D8E9AC
:103BB0000602D8F8201003920791D8F8241094ED4B
:103BC000048B801A069101F0B3FA0646606D8B46AD
:103BD00001F0AEFA0A9D0B9C2A46234601F0C0FA7A
:103BE00081463046089E8A46594632463B4601F099
:103BF000B7FA4A46534601F099F8024641EC100BD9
:103C000040F27020C2F200000B4680ED000B51EC38
:103C1000180B01F08BF8CDE9011007980399081AE9
:103C200001F086FA814640F28810C2F20000806DF1
:103C30000F4601F07DFA2A46234601F091FA3246FA
:103C4000099E82468B4648463946334601F088FA3B
:103C500052465B4601F06AF8024641EC100B40F216
:103C60007020C2F200000B4680ED020BDDE901106E
:103C700001F05CF803918246DDE906B0A0EB0B0091
:103C800001F056FA814640F28810C2F20000C06D81
:103C90000F4601F04DFA2A46234601F061FA0D461F
:103CA0003946089F044648463A46334601F058FADA
:103CB00022462B4601F03AF8024641EC100B40F246
:103CC00070200B46C2F20000039980ED040B5046B1
:103CD00001F02CF80390D8F828000790ABEB000017
:103CE000029100F009B800BF3FABCC94D6DFB23EE2
:103CF0008DEDB5A0F7C6803E01F01AFA834640F27A
:103D00008810C2F20000006E8A4601F011FA0A9E85
:103D1000DDF82C9032464B4601F022FA3A46099FD4
:103D200004460D46584651463B4601F019FA2246D4
:103D30002B4600F0FBFF024641EC100B40F27020D6
:103D4000C2F200000B4680ED060BDDE9021000F028
:103D5000EDFFD8F82C200390069202910798801A64
:103D600001F0E6F9824640F28810C2F20000406E8F
:103D70008B4601F0DDF932464B4601F0F1F904467D
:103D80005046DDF820A00D46594652463B4601F00C
:103D9000E7F922462B4600F0C9FF024641EC100B22
:103DA00040F27020C2F200000B4680ED080BDDE906
:103DB000021000F0BBFF8146D8F830008B46069910
:103DC000081A01F0B5F940F28818C2F20008064658
:103DD000D8F868000F4601F0ABF9DDE90A2301F0DD
:103DE000BFF9099B04460D4630463946524601F05C
:103DF000B7F922462B4600F099FF024641EC100B22
:103E000040F27020C2F200000B4680ED0A0B4846DB
:103E1000594600F08BFFDDE9042301F02FF841EC57
:103E2000100B024638A00B4688ED040BFCF7ACFAE9
:103E300098ED020B98ED041B53EC102B51EC110B79
:103E400001F08CFA41EC100B024633A00B4688EDD2
:103E50000A0BFCF799FA98ED040B98ED0A1B98ED04
:103E6000028B51EC110B53EC102B01F007F853ECC3
:103E7000182B01F075F99FED1A0B53EC102B01F084
:103E80006FF941EC100B024628A00B4688ED0C0B95
:103E9000FCF77AFA98ED0C0B9FED131B51EC100B0D
:103EA00053EC112B01F05CF99FED110B53EC102B2F
:103EB00001F056F941EC100B024625A00B4688EDA7
:103EC0000E0B0CB0BDEC028B01B0BDE8F04FFCF75F
:103ED0005BBA00BF00BF00BF00000000000014403C
:103EE0005839B4C876BE9F3FAED85F764F1E263F86
:103EF0000000000080842E410A0D20543132203D04
:103F000020254C66200A0A000A0D20543231203D3B
:103F100020254C66200A0A000A0D2064544F4620D2
:103F20003D20254C66200A0A000000000A0D20569C
:103F3000656C6F63697479206F6620576174657270
:103F4000203D20254C66206D2F730A0A00000000DA
:103F50000A0D20576174657220466C6F77203D20F2
:103F6000254C66206D4C2F73200A0A0080B582B064
:103F7000019040F27020C2F20000303001A901220D
:103F80004FF6FF73FEF786FE019802B080BD000079
:103F900094B043F6300740F60044C4F20207C4F27E
:103FA0000204FDF78BFB06AD281D2C21FCF780FADF
:103FB00000260596CDE90366CDE9016612963869BB
:103FC00040F080503861386900F0805012901298AB
:103FD00046F200401296CFF6FE70215841F480411F
:103FE0002150205800F48040129012980220069030
:103FF0000120099010200A9028460C96FDF71AFD22
:1040000020B1EFF3108072B6FEE700BF0F20CDE9BC
:1040100001064FF4A050CDE9040001A80021039649
:10402000FDF7FAFB20B1EFF3108072B6FEE700BF98
:104030000026CDE909660196386840F6000840F090
:104040000400386038684FF4704100F004000190BB
:10405000019801963868002240F001003860386805
:10406000C4F2000800F00100019001980196386840
:104070004FF4704940F010003860386800F01000CC
:10408000019001980196386840F002003860386865
:1040900000F00200019001980196386840F0080095
:1040A0003860386800F00800019001982046FDF75C
:1040B000EBFA06AD0127A4F540602946CDE9067666
:1040C0000896FDF70DFA4FF4804006904FF48810E3
:1040D000CDE9070604F580602946FDF701FA204680
:1040E0002946CDE90697CDE90866FDF7F9F92820BC
:1040F00000210022FDF754FB2820FDF73DFB40F294
:10410000E42008F54051C2F200004FF482724FF4EF
:104110000073082780E846000A21C0E90366C0E969
:104120000563C761C0E90866C0E90A61FDF73CFEA6
:1041300020B1EFF3108072B6FEE700BF40F27020AE
:10414000A4F57841C2F2000040F8301F4FF4E1318D
:104150000C22C0E90116C0E90366C0E90526C66164
:10416000FEF732FD20B1EFF3108072B6FEE700BF1C
:1041700040F23C300021C2F200000F224FF6FF73E4
:104180000991CDE90711CDE91211C0E90082C0E91A
:10419000021301618161FEF7D5FA28B1EFF31080B7
:1041A00072B600BFFEE700BF4FF48050069040F2A9
:1041B0003C30C2F2000006A9FEF726FB20B1EFF367
:1041C000108072B6FEE700BF40F23C30C2F2000041
:1041D000FEF7CAFC20B1EFF3108072B6FEE700BF15
:1041E00040F23C30C2F2000012A9FEF74FFA28B1AB
:1041F000EFF3108072B600BFFEE700BF0A20019007
:1042000001200290002003900420049040F23C30F2
:10421000C2F2000001A90022FEF7C4FB20B1EFF3B7
:10422000108072B6FEE700BF36A0FCF7ADF837A0ED
:10423000FCF7AAF843A0FCF7A7F820464FF480410A
:104240000022FDF721FA3220FDF728F920464FF42D
:1042500080410122FDF718FA0120FDF71FF940F215
:104260008816C2F20006C02006F8010F20464FF45F
:1042700000410022FDF708FA40F2E425C2F20005F1
:104280002846314601223223FDF734FF40F218015F
:10429000C2F2000128460A226423FDF72BFF2046C4
:1042A0004FF400410122FDF7EFF941F60270ADF83D
:1042B000180020464FF400410022FDF7E5F906A959
:1042C000284602223223FDF715FF20464FF4004115
:1042D0000122FDF7D9F940F2F015C2F2000505F10F
:1042E000300000F0E1F805F1570000F0DDF8FFF7CD
:1042F000C7F920464FF480410022FDF7C5F900BF01
:10430000FEE700BF0A0A0A20000000000A0D2E2E58
:104310002E2E2E2E2E2E2E2E2E2E2E2E2E2E2E2EBD
:104320002E2E2E2E2E2E2E2E2E2E2E2E2E2E2E2EAD
:104330002E2E2E2E2E2E2E2E2E2E2E2E2E2E2E2E9D
:104340000A0D20000A0D2E2E2E2E2E2E2E2E2E2E53
:10435000556C747261736F6E696320576174657216
:1043600020466C6F77204D657465722E2E2E2E2E92
:104370002E2E2E2E2E2E2E2E2E0A0D200000000068
:104380002DE9F04140F61005C4F2000505F50030B6
:1043900000F57C7420464FF4005101220126FDF700
:1043A00073F90420E8616E60286820F0010028603D
:1043B00055F8100C40F0010045F8100C2868C007B3
:1043C00009D12868C00704BF28685FEAC07002D11D
:1043D0002868C007F2D028684FF4005120F001008F
:1043E000286020460022FDF74FF90220FDF756F81D
:1043F00040F28818C2F200080127042688F80070ED
:104400000EE000BF286820F00100286098F8000046
:104410000130C1B2062988F8000028BFBDE8F0814C
:1044200020464FF480510122FDF72EF9EE616F60B6
:10443000286820F00100286055F8100C40F00100B9
:1044400045F8100C2868C0070AD12868C00704BFC7
:1044500028685FEAC07003D12868C007F2D000BFA7
:1044600028684FF4805120F0010028602046002287
:10447000FDF70AF9EE616F60286820F001002860FE
:1044800055F8100C40F0010045F8100C2868C007E2
:10449000B8D12868C00704BF28685FEAC070B1D1EE
:1044A0002868C007F2D0ADE770B582B040F21801BD
:1044B000C2F2000109780446002040F600458DF85C
:1044C000060041F00100C4F202058DF807002846FD
:1044D0004FF400410022FDF7D7F840F2E426C2F283
:1044E00000060DF10601304602223223FDF702FEDE
:1044F00028464FF400410122FDF7C6F8FFF740FFC0
:104500009020207028464FF400410022FDF7BCF8AF
:104510003046214601223223FDF7ECFD304621468C
:1045200027223223FDF7ECFC28464FF400410122FC
:10453000FDF7AAF84FF4FA70FCF7B0FF02B070BDB7
:104540005FEA400C08BF91F0000F4FEA8C234FEA5E
:10455000C12243EA51514FEA1C5018BF00F5F04008
:104560004FEA300018BF41F000415FEA6C5C00F098
:104570002980BCF1FF3F08BF40F080407047130C1A
:1045800006BF12044FF0100C4FF0000C130E04BFC6
:1045900012020CF1080C130F04BF12010CF1040CF1
:1045A000930F04BF92000CF1020CD30F04BF520012
:1045B0000CF1010C11464FF00002A0F11F00A0EB1E
:1045C0000C00704711F0004F08BF704731F00041F8
:1045D0003FF4D5AF0B0C06BF09044FF0100C4FF0A1
:1045E000000C0B0E04BF09020CF1080C0B0F04BFEA
:1045F00009010CF1040C8B0F04BF89000CF1020CB3
:10460000CB0F04BF49000CF1010CCCF1200322FABE
:1046100003F341EA030102FA0CF2A0EB0C0000F1F3
:104620000100704723F07F4720F07F4C80EA0300B1
:1046300000F00040ACEB070303F57C5303F1FF03EC
:104640002DE9804909B44FEA144324EA03484FEAAC
:10465000154B25EA0B4E0FF2042606EB13273E7886
:1046600003FB0667C7F5000707FB06F64FEAD646C9
:1046700006F102064FEA543707FB066CCCF1005CEA
:104680004FEA1C472CEA074C0CFB06F507FB06F427
:1046900004EB15464FEA961649085FEA320234BF2A
:1046A00000204FF000404FEAD13706FB07FC4FEAED
:1046B0001C4C0CFB0BF7D21B03FB0CF761EB070147
:1046C0000CFB0EF7B0EB074072EB17420CFB08F740
:1046D00034BFA2EB0742B2EB074261EB17414FEA4E
:1046E0000C444FEA910706FB07FC4FEA1C4C0CFBFD
:1046F0000BF7B0EBC74072EB573203FB0CF734BF3C
:10470000A2EBC742B2EBC74261EB57310CFB0EF78D
:10471000B0EBC70072EB57720CFB08F734BFA2EB8B
:10472000C702B2EBC70261EB57714FEA816141EA00
:1047300092114FEA826242EA90124FEA806004EBE3
:10474000CC04039F4FEAD13706FB07FC4FEA1C4C11
:104750000CFB0BF7D21B03FB0CF761EB07010CFB07
:104760000EF7B0EB074072EB17420CFB08F734BFB3
:10477000A2EB0742B2EB074261EB17414FEA8C55BF
:1047800004EB9C244FEA910706FB07FC4FEA1C4C04
:104790000CFB0BF7B0EBC74072EB573203FB0CF787
:1047A00034BFA2EBC742B2EBC74261EB57310CFBFF
:1047B0000EF7B0EBC70072EB57720CFB08F734BF73
:1047C000A2EBC702B2EBC70261EB57714FEA8161FE
:1047D00041EA92114FEA826242EA90124FEA806007
:1047E00015EB4C2544F100044FEAD13706FB07FCDA
:1047F0004FEA1C4C0CFB0BF7D21B03FB0CF761EBD5
:1048000007010CFB0EF7B0EB074072EB17420CFBF5
:1048100008F734BFA2EB0742B2EB074261EB174146
:104820004FEA813141EA92414FEA823242EA9042B4
:104830004FEA80304FEA0C7615EB1C1544F100046A
:1048400048EA03434EEA0B484FF0000EB2EB080C67
:1048500071EB030724BF624639464EEB0E0E4FF054
:10486000000B0018524149414BEB0B0BB2EB080C0B
:1048700071EB03077BF1000B24BF624639464EEB18
:104880000E0E4FF0000B0018524149414BEB0B0B41
:10489000B2EB080C71EB03077BF1000B24BF6246FF
:1048A00039464EEB0E0E51EA020718BF46F00106DC
:1048B00016EB0E7655F1000254F1000103D5BDE868
:1048C0008901BDE80088BDE88901BDE80048B61946
:1048D000524141EB0101A3F10103704780807F7ECB
:1048E0007D7C7B7A79787776767574737271717066
:1048F0006F6E6E6D6C6C6B6A6A6968686766666518
:104900006464636362616160605F5F5E5E5D5D5CA5
:104910005C5B5B5A5A595958585757565655555516
:104920005454535352525251515050504F4F4F4E76
:104930004E4D4D4D4C4C4C4B4B4B4A4A4A494949C4
:104940004848484747474746464645454544444406
:104950004443434343424242424141419C46002B2F
:1049600030D477002BD04FEA37071CB503B44FF093
:1049700010004FF01001BAF1000F06D0BCF1000F8B
:10498000DCBF40F0080040F008014FF000000FBC11
:10499000BDE810400BF1010BBBF1010F08BF5FEA4E
:1049A000170722BF12F1010211F101014FF000417E
:1049B00043F1000300F0004043EA00007047F9D3E0
:1049C0005708D0E746EA06464FEA164613F1400F6D
:1049D0001FDD13F1200FDFBF16430A4600212033ED
:1049E0005B42BED0C3F1200746EA06464FEA1646B0
:1049F00002FA07F746EA070622FA03F2C3F1200794
:104A000001FA07F742EA070221FA03F14FF0000327
:104A1000A7E746EA020646EA06464FEA164646EA8F
:104A20000106BCBF46EA0646360C4FF000034FF0C5
:104A300000024FF0000194E72DE9804C70B49A46D3
:104A4000934691E8380007C831EA400C48BF34EA81
:104A5000430C03D5FFF7E6FDFFF780FFF0BCBDE890
:104A6000008C2DE9804C70B49A46934691E838004A
:104A700007C810F0804F08BF13F0804F03D100F03B
:104A800005F8FFF76BFFF0BCBDE8008C20F07F4716
:104A900023F07F4C80EA030000F0004007EB0C039A
:104AA000A3F57C53A3F1FE0392F0000F00F0B38056
:104AB00095F0000F00F077802DE901494FEA114091
:104AC00021EA00484FEA144624EA064700FB06FCA8
:104AD00008FB06F607FB08F818EB06484CEB164CEB
:104AE00000FB07F718EB07484CEB17404FEA124B57
:104AF00022EA0B4E4FEA154625EA06470BFB06FC59
:104B00000EFB06F607FB0EFE1EEB064E4CEB164C9C
:104B10000BFB07F71EEB074E4CEB174B18EB0B0884
:104B200040F1000018EB0E0B58EB000840F10000BC
:104B30008F1A4FF000014FF000063CBFC943661BBF
:104B400014BFB5EB040C00213CBFC943F61B4FEA70
:104B5000174427EA04454FEA1C472CEA074C04FB9C
:104B6000076205FB07F70CFB05F616EB074642EB61
:104B7000174204FB0CFC16EB0C4642EB1C421BEBF1
:104B8000060658EB020241414EEA8E0E46EA9E06A8
:104B900001D5BDE80189B619524141EB0101A3F1EC
:104BA0000103BDE801894FEA144524EA05464FEAAE
:104BB000114721EA074C05FB07F406FB07F70CFB3E
:104BC00006F111EB074144EB174405FB0CFC11EB1C
:104BD0000C4144EB1C444FEA124722EA074C05FB08
:104BE00007F206FB07F70CFB06F616EB074642EB4F
:104BF000174205FB0CFC16EB0C4642EB1C456A18F1
:104C000054F1000148BF7047B619524141EB010110
:104C1000A3F10103704795F0000F37D04FEA11421E
:104C200021EA02464FEA144724EA074C02FB07F147
:104C300006FB07F70CFB06F414EB074441EB1741A6
:104C400002FB0CFC14EB0C4441EB1C414FEA1547F2
:104C500025EA074C02FB07F506FB07F70CFB06F6F7
:104C600016EB074645EB174502FB0CFC16EB0C4612
:104C700045EB1C42121951F1000148BF7047B619AB
:104C8000524141EB0101A3F1010370474FEA144582
:104C900024EA05464FEA114721EA074C05FB07F1D4
:104CA00006FB07F70CFB06F212EB074241EB17413C
:104CB00005FB0CFC12EB0C4251EB1C414FF00006C3
:104CC00048BF7047921841EB0101A3F101037047FF
:104CD00003B401984100009850EAC12018BF042095
:104CE0004A0D18BF40F0010040F2FF72B2EB515F75
:104CF00008BF40F00200012808BF052002B070473D
:104D000010B500290AD00878002807D00548784453
:104D1000FBF7F6FB002801D0002010BD02487844C4
:104D200010BD0000560900004E09000010B591EAC0
:104D3000030F48BF83F0004300F11883841A71EB1E
:104D4000030C05D2121943EB0C03001B61EB0C01A1
:104D50004FEA1154A4EB135CDFF81CE11EEA430F89
:104D600018BF9EEA445F00F0748021EA045123EAF0
:104D70000E0343F48013DCF1200E32D322FA0CFE32
:104D800010EB0E0023FA0CFE41EB0E01CCF1200ECD
:104D900003FA0EFE10EB0E00CCF1200E51F10001D3
:104DA000B1F5801F32D201EB045112FA0EF2BDE8C8
:104DB000104058BF7047401C38BF5FEA420218BF1E
:104DC0007047002814BF20F0010041F100014FEAB4
:104DD000410313F5001F38BF7047A1F1C04100F037
:104DE000B7BA012A43EB0302ACF1200CDCF11F0E31
:104DF00032BF4FF0000E23FA0CF310EB030041EB2F
:104E00000451B4EB115FD0D0A1EB045101F5801136
:104E1000490801EB04515FEA30000ED350F1000065
:104E200038BF12FA0EFE08D1BDE81040C9E7401C99
:104E300038BF5FEA4202CAD1C3E7BDE810404FEA7B
:104E4000410313F5001F38BF7047A1F1C04100F0C6
:104E50007FBA9EEA445F08D011EA5E0FBDE81040B9
:104E600004BF01F0004100207047BDE8104070B55C
:104E700000F020FA64FBBE3E0000E0FF2DE9C041D7
:104E800030B4DFF8A4C23CEA111418BF3CEA131492
:104E900000F0ED801CEA111481EA030544EAD574A0
:104EA00018BF1CEA131500F0C880A4EB050404F138
:104EB0007F7404F500344FF0004545EAC12145EA0E
:104EC000C32341EA505143EA52534FEAC0204FEA0C
:104ED000C222994208BF904200F09D804FEA1365BC
:104EE0000FF24416765D4FEA134506FB05F7C7F14E
:104EF000807706FB07F74FEAD737A7FB03687642B0
:104F0000A7FB06CEC8F5803838BFA8F1010807FB1B
:104F100008E6A6FB028C4FF0000EE6FB03CEDCF1A8
:104F2000000CCEF1004E38BFAEF1010EA6FB0C58BE
:104F30004FF00007E6FB0E87A1FB08C6A0FB07CEDB
:104F400016EB0E064FF0000545F10005E1FB076585
:104F500015F1E04E7EBFA4F580345FEA46066D4150
:104F600016F1800745F100054FEA172747EA056764
:104F70004FEA15254FEA0666A6F1DE46B6F1805FD8
:104F800020D9384605EBC47124F0010C01EB0C115B
:104F9000BCF1FE6F02D8F0BCBDE8008124425CBFCA
:104FA00001F5801E9EEAC47F02D4F0BCBDE80081FA
:104FB000244200F13980A1F1C041F0BCBDE80041BC
:104FC00000F0C6B94FEAD02040EA41504FEAD12163
:104FD0004FEAD22242EA43524FEAD323A7FB02868A
:104FE00007FB036605FB02661EEA0E0F58BFA6EB21
:104FF0000056B6EB00564FEA520E4EEAC37E18EB4F
:105000000E0E56EB530EBCD518EB02085E417F1C0A
:1050100055F10005B5E74FF480154FF000074FF04C
:1050200000064FF00008ACE701F1C04101F000417B
:105030004FF00000F0BCBDE800810CEA131511EA46
:105040000C1F00D00CE013EA0C1F00F026804FF07C
:10505000000081EA030101F00041F0BCBDE80081DD
:10506000F0BCBDE8004181EA030100F071B9F0BC79
:10507000BDE8004170B500F01DF900BF097EFC3E9F
:1050800000F007B84FF0000081EA030101F0004191
:10509000704781EA030100F05BB9F0BCBDE8004154
:1050A00022494FF000007047FFFDFBF9F7F5F4F2DD
:1050B000F0EEEDEBE9E8E6E4E3E1E0DEDDDBDAD8B3
:1050C000D7D5D4D3D1D0CFCDCCCBCAC8C7C6C5C411
:1050D000C2C1C0BFBEBDBCBBBAB9B8B7B6B5B4B328
:1050E000B2B1B0AFAEADACABAAA9A8A8A7A6A5A413
:1050F000A3A3A2A1A09F9F9E9D9C9C9B9A999998D7
:105100009797969595949393929191908F8F8E8E79
:105110008D8C8C8B8B8A8989888887878685858406
:1051200084838382828181800000FF070000F87FF2
:1051300010F0004248BF4042B0FA80F310FA03F189
:105140000AD0C3F11D0303F5806302EB03524FEA5B
:10515000415002EBD12170474FF000007047000032
:1051600070B5DFF848C11CEA111E1EBF1CEA1315FA
:105170009EEA0C0F95EA0C0F00F06F8081EA0304A1
:105180004EEAD47EAE4421EA4C1123EA4C1341F49A
:10519000801143F48013AEF17F7EA1FB024CA0FB93
:1051A0000365361955EB0C05A1FB034C4CF10003CC
:1051B000A0FB021C16EB0C06654153F100030942EB
:1051C00018BF46F0010613F4007F0BD14FEA0331FC
:1051D0004FEA053041EA155140EA165034036FF0AA
:1051E00003020AE04FEAC3214FEAC52041EA5551C4
:1051F00040EA5650F4026FF0020202EB2E4201EB3D
:10520000025585EACE710AD05FEA440C18BF24F03B
:10521000004450F1000041F1000120EAD47040F256
:10522000FE7C624500D270BDA84214BF4FF080449E
:105230004FF04044002E08BF0024BEF1806FA8BF8D
:10524000A1F1C041BDE8704080F2828001F1C0410F
:1052500001F000414FF0000070470CEA13159EEA80
:105260000C0F18BF95EA0C0F06D081EA030E4FF021
:1052700000000EF0004170BD00F01CF88900013EF6
:1052800000F007B800F009B84FEA430C5FEA5C5C35
:1052900008D081EA030100F05BB84FEA410C5FEAF5
:1052A0005C5CF6D102494FF0000070470000FF0738
:1052B0000000F87F0EF1020E2EF0030E5EF8046B74
:1052C000364205D4012A43EB030515F5001F12D819
:1052D000012841EB010C1CF5001F0CD80ED14FEA40
:1052E000D17C0CEB4C0C0CF1020C15F5001F08BF27
:1052F0004CEBD37C04E04FF0080C01E04FEAD37C88
:105300000CEB4C0526FA05F606F00706B6F1040C80
:1053100006D20EEB860CBDE870404CF0010C6047E5
:10532000DFE80CF0090B02024FF00041A1F500216B
:105330004FF0000070BD19461046012851EB0104E2
:1053400018BFD4F5001484BF002001F0004170BDE7
:105350000808A0F500114FEA3101704710B591EA35
:10536000030F48BF83F000433FF5E8AC841A71EBAC
:10537000030C07D28CF0004C121943EB0C03001BFA
:1053800061EB0C014FEA1154A4EB135CDFF8A4E1CC
:105390001EEA430F18BF9EEA445F00F0B48021EA82
:1053A000045123EA6E035242C3EB6E0338BF5B1E07
:1053B000DCF1200E25D322FA0CFE10EB0E0043FA8E
:1053C0000CFE41EB0E01CCF1200E03FA0EFE10EBA9
:1053D0000E00CCF1200E51F1000129D401EB045153
:1053E00012FA0EF2BDE8104058BF7047401C1CBFB7
:1053F000B2F1004F704700280CBF491C20F001009B
:10540000704712EB020E43EB030218BF4FF0010E80
:105410004EEA4202ACF1200CDCF11E0E56D943FAE2
:105420000CFE10EB0E00CCF11E0E51F1FF31D5D564
:105430000EF1010E12FA0EFE404141EB010101EBAB
:10544000445C5FEA5C5C10D901EB045110EBDE7048
:1054500038BFBEF1004FBDE8104018BF70470028AC
:105460000CBF491C20F00100704734D24FEAD42C05
:1054700024F4006411F500111BD0B1FA81F20B3A4B
:10548000A41AA41ED2F12003914030FA03F3194369
:10549000904001EBCC7101EB0451002CBDE81040B1
:1054A000A8BF704701F1C04101F000414FF000007A
:1054B0007047B0FA80F310FA03F102D1BDE8104052
:1054C0007047E41A173C4805C90AE2E701EB0451AA
:1054D000BDE81040704749104FEA300001EB04511D
:1054E000BDE8104002E04FF0000170474A0008BFDD
:1054F0000042F8D0B2F5001F28BF704701F000410C
:105500004FF0000070479EEA445F07D011EA5E0F3B
:10551000BDE8104004BF002100207047BDE81040E6
:1055200070B5FFF7C7FE00BF40DFF63E104683F0C0
:10553000004170470000E0FFF1EE100A4FF6FF71E6
:10554000C0F2C03120EA010040F04070E1EE100AE4
:105550007047FBF747B93031323334353637383995
:1055600041424344454640305800303132333435AF
:105570003637383961626364656640307800000010
:1055800002400000000000A00000000005400000F4
:10559000000000C8000000000C4000000000409C1B
:1055A00000000000194000000020BCBE0000000008
:1055B00034400000BFC91B8E00000004B54000004D
:1055C000504BCFD06607E2CF010000006C410000D5
:1055D0003E8251AADFEEA73401000000D94200004C
:1055E000DCB5A0E23A301F97FFFFFFFFB445000093
:1055F000FD25A0C8E9A3C14FFFFFFFFFFF3F00004B
:105600000000008000000000FF3F0000000000805C
:105610000000000000000000000000000102030480
:105620000607080900000000010203043A5354442D
:10563000455252003A535444494E003A5354444F51
:10564000555400008056000800000020280000008B
:10565000C4010008A85600082800002060090000C6
:10566000E00100081C00000043000000F8FFFFFFFD
:105670000C0000000E0000000F0000002E000000D3
:105680000000000000000000000000000100000019
:10569000100000000024F40003440007FFFFFFFF98
:0856A000000000000000000002
:040000050800018965
:00000001FF
