:020000040800F2
:10000000A008002059020008532D00081F2C0008EA
:10001000512D0008B91B00089D35000800000000A4
:10002000000000000000000000000000C52E0008D5
:10003000BB1B000800000000552D0008C72E00085B
:1000400073020008730200087302000873020008BC
:1000500073020008730200087302000873020008AC
:10006000730200087302000873020008730200089C
:10007000730200087302000873020008730200088C
:10008000730200087302000873020008730200087C
:10009000730200087302000873020008730200086C
:1000A000730200087302000873020008730200085C
:1000B000730200087302000873020008730200084C
:1000C000730200087302000873020008730200083C
:1000D000730200087302000873020008730200082C
:1000E000BD1B0008730200087302000873020008B9
:1000F000730200087302000873020008730200080C
:1001000073020008730200087302000873020008FB
:1001100073020008730200087302000873020008EB
:1001200073020008730200087302000873020008DB
:1001300073020008730200087302000873020008CB
:1001400073020008730200087302000873020008BB
:1001500073020008730200087302000873020008AB
:10016000730200087302000873020008730200089B
:100170007302000873020008730200080000000008
:10018000730200087302000800F002F800F054F84F
:100190000AA090E8000C82448344AAF10107DA45E2
:1001A00001D100F049F8AFF2090EBAE80F0013F0E0
:1001B000010F18BFFB1A43F00103184774430000F6
:1001C00094430000103A24BF78C878C1FAD8520787
:1001D00024BF30C830C144BF04680C6070470000C1
:1001E0000023002400250026103A28BF78C1FBD840
:1001F000520728BF30C148BF0B607047662904F022
:100200001E81782900F00081002070471FB504F09E
:1002100011F99DE8030000F0F9FE00F007FC04006E
:100220000020002103F0F0FCE06000F017FD1FBD8E
:1002300010B500F07CFD10BD00F0B0FD1146FFF7D9
:10024000E5FF03F04FFA00F0B5FE03B4FFF7F0FF4F
:1002500003BC01F04DF800000948804709480047F9
:10026000FEE7FEE7FEE7FEE7FEE7FEE7FEE7FEE766
:10027000FEE7FEE704480549054A064B70470000C3
:100280004D2F000889010008A0020020A0080020CE
:10029000A0040020A004002053EA020C00F06980B2
:1002A0002DE9F04B4FF00006002B1FBFB3FA83F58A
:1002B00003FA05F424FA05F65E4012BF1643B2FABB
:1002C00082F502FA05F4C5F120051EBF22FA05FCED
:1002D00044EA0C04203556EA044C4FEA144418BF93
:1002E000641C4FF000084FF00009904271EB030CC2
:1002F00039D3002919BFB1FA81F701FA07F6B0FA2C
:1003000080F700FA07F6C7F120071EBF20FA07FCA6
:1003100046EA0C062037B6FBF4FCA7EB0507103FB6
:1003200007F01F0BCBF120060CFA0BFB2CFA06F69C
:1003300044BFB3460026202FA4BF5E464FF0000BFB
:100340005BEA060C08BF4FF0010B19EB0B09ABFB86
:10035000027C48EB0608C01B06FB02CC0BFB03CC5F
:1003600071EB0C01C1E70B46024641464846BDE829
:10037000F08B13B54FF000004FF00001AFF3008099
:10038000BDE81C40704700000FB4044910B503AA33
:10039000029800F039FB10BC5DF814FB98010020B6
:1003A0002DE9F0410E460446002020622046E16817
:1003B000884730B3252805D0D4E901219047206A29
:1003C000401CF2E7E168204600278847050018D066
:1003D000A5F14100192802D820354FF400673246B4
:1003E000294620462760FFF709FF40B1012804D0C5
:1003F000F61D26F007060836D8E7361DD6E728464C
:10040000DAE7206ABDE8F08170B504460D46214662
:100410001068AFF300802188090502D50F4A7A449D
:1004200002E00E4A7A440E32002104F1240305E072
:1004300000F00F060009965D5E54491C0028F7D1B4
:1004400020780023000704D5702D02D009B10223C3
:1004500011322046BDE8704000F06DB84F400000FA
:100460004FF0000200B5134694469646203922BF4D
:10047000A0E80C50A0E80C50B1F12001BFF4F7AF98
:10048000090728BFA0E80C5048BF0CC05DF804EB7A
:10049000890028BF40F8042B08BF704748BF20F8E8
:1004A000022B11F0804F18BF00F8012B704700009D
:1004B0004FF0013C50F8042B51F8043B9A4221D1F3
:1004C000A2EB0C03934313EACC1317D150F8042B7F
:1004D00051F8043B9A4215D1A2EB0C03934313EA63
:1004E000CC130BD150F8042B51F8043B9A4209D19C
:1004F000A2EB0C03934313EACC13DBD04FF00000C4
:10050000704700BFD01A01BAB1FA81F101F01801A9
:1005100022FA01F0CB40C1F12001DBB2C0B2C01A17
:100520002CFA01F3D11A914311EAC311E6D17047B5
:100530007047704770472DE9F0470D46994692463F
:10054000044600F124080168880604D5E06921F01A
:100550001001216000E00120A84201DD471B00E0FE
:100560000027A1697A1902EB0900081AA061207816
:10057000C00602D42046AFF30080002608E0D4E98C
:1005800001211AF806009047206A401C761C206260
:100590004E45F4DB2078C0060AD52046AFF3008034
:1005A00006E0D4E9012130209047206A401C2062F7
:1005B000381EA7F10107F4DC07E0D4E9012118F89F
:1005C00005009047206A401C2062281EA5F1010505
:1005D000F3DC2046AFF300802078000602D502202D
:1005E000BDE8F0870120FBE770472DE9FF4F0C467F
:1005F0001E464FF0FF378BB0D2E90001DDF8608076
:100600000A908A46C1F30A5505B93D4600210846BD
:100610004FF00000BAF1000F00F4400005DA00EBE3
:1006200080004FF4400101EA50004FEA9059B9F1BF
:10063000010F00DDB9460A9850EA4A000ED044F690
:100640001050A5F2FF3545432F14B8F1000F1ED00E
:100650007542291E1EDDC9F100021CE0B8F1010F30
:100660004FF0000001D0302103E0F24305E02154B7
:10067000401CB042FBDB30460022002121540B9984
:10068000C1F80880C1E900200FB0BDE8F08FBD1BA4
:100690006D1CDEE74A4600DA694206A800F068FAF7
:1006A00006AB93E8070003AB83E8070050460A99BE
:1006B00000F0BAFE8DE80700A0F500501F3800904A
:1006C0000398002D0ADD42F21F014A460844002328
:1006D00003A90390684601F023F909E0A0F5005052
:1006E0004A461F38002303A90390684601F02DF9FC
:1006F0008DE807000004000C03D04FF0FF304108E4
:1007000000E01046B8F1000F03D000220092154619
:100710001EE0751E05D400F08DF9303262556D1E55
:10072000F9D5B3460122084302D000227F1C04E021
:100730002078302801D100227F1E002A099784D01A
:100740001DE0112D07DA00F075F9303262556D1C8D
:1007500050EA0102F5D1084302D00098C8B10EE07A
:100760000021681E05E0235C625C63542254401E35
:10077000491C8142F7DBAB46A81B401E09900020B4
:1007800004F80B000B98099AC0F80880C0E9002B08
:100790007AE711264FF0000857E72DE9F04F884619
:1007A0000446D21D22F0070191B0D1E90001CDE944
:1007B0000A0102F0F4FE02460B98C00F01D02D2072
:1007C00007E02068810701D52B2002E0202101EA03
:1007D000C000032A099001D0072A05DB03464146E1
:1007E000204600F085F90BE12078800601D5E0690C
:1007F00000E00620B8F1650F814606D0B8F1660F1B
:1008000018D0B8F1670F70D131E00020B9F1110FA5
:10081000009001DB112301E009F101030AAA01A9FB
:100820000CA8FFF7E2FEDDE90C70002609F10105D6
:10083000834647E001204B4600904FF000470AAA4C
:1008400001A90CA8FFF7D1FEDDE90DB00C995D46BA
:10085000002610B909F101000D18B9EB050003D409
:10086000C0F1FF3609F10105A5EB09002BE0B9F154
:10087000010F01DA4FF001090020B9F1110F0090CA
:10088000484601DD112300E003460AAA01A90CA88D
:10089000FFF7ABFEDDE90C704D460026834620785D
:1008A00000070AD4AB4500DA5D4601A8012D04DD3E
:1008B000411911F8011C302907D04F4502DA17F110
:1008C000040F04DA012082460FE06D1EEEE7002FD0
:1008D00002DCED1B3E4403E0781CA84200DD7D1CD9
:1008E000B81B00F1010A4FF000472078000703D43D
:1008F000AA4501DB4FF0FF3A0021B7F1004F0DF19F
:1009000043088DF8431024D002202B23002F01DA56
:100910007F422D230A21021EA0F1010000DC5FB1FD
:1009200097FBF1FC97FBF1F201FB1C7C17460CF1E5
:10093000300C08F801CDEEE7A8F101000370218822
:10094000090501D5452100E06521A0F1010800F865
:10095000011C09980FA9A1EB0807FF1D00B1012098
:10096000411901EBEA70A1693844081A401EA061E0
:100970002078C00602D42046AFF30080099828B141
:10098000D4E901219047206A401C20622078C006EB
:1009900022D52046AFF300801EE0002E04DBB345D5
:1009A00002DD01A8805D00E03020D4E901219047FC
:1009B000206A401C2062761CAAF101005FEA000A4E
:1009C0000AD100F033F8C0680168405CD4E9012125
:1009D0009047206A401C2062281EA5F10105DCDC3E
:1009E00007E0D4E9012118F8010B9047206A401C68
:1009F0002062381EA7F10107F3DC2046AFF3008028
:100A0000032011B041E60000074B70B50D467B4452
:100A100000F05BF80446284600F01CF910B14FF0D6
:100A2000FF3070BD204670BDBB2C000000487047F1
:100A30006002002030B5B0F10A024FEA900E71F169
:100A400000034EEA817EB0EB0E0061EB91014FEAAC
:100A5000101E4EEA017E10EB0E0041EB11114FEA21
:100A6000102E4EEA016E10EB0E0041EB11214FEA01
:100A7000104E4EEA014E10EB0E0041EB11414018B2
:100A800041F100014FEAD00040EA41704FEAD10144
:100A900010EB80054FEA810444EA907444EB0104B2
:100AA0006D1944EB0404521BA3414FF0000348BFEF
:100AB0000A3200D530BD401C41F1000130BD0000BC
:100AC00001694A1C02610878704700B58FB0CDE912
:100AD00001310021059105497944CDE90310114602
:100AE0006846FFF75DFC0FB000BD0000E5FFFFFFAB
:100AF0002DE9F0411F46044603260168072A01F448
:100B0000006004DB08B116A505E016A503E008B1F6
:100B100015A500E015A521F010002060A069C01EF9
:100B2000A0610FB1401EA0612046AFF300804FB11D
:100B3000D4E9012138469047206A401C2062C01C3D
:100B4000206206E0206AFAE7D4E9012115F8010BDA
:100B50009047761EF8D22046AFF30080BDE8F081C2
:100B60004E414E006E616E00494E4600696E660051
:100B70002DE9F047814616468AB0354878440DC8BD
:100B80008DE80D0032487844801C03AC0DC884E821
:100B90000D0041F69B300844372190FBF1F290FBA9
:100BA000F1F5A5F1800501FB12041B3C02D564425E
:100BB000012000E00020DFF898A080460027FA44DA
:100BC000AAF1BE0A0EE0E0070AD03246684607EBFB
:100BD000470101230AEB810100F0B7FE8DE8070011
:100BE00064107F1C002CEED1194F7F44AE3F19E0FA
:100BF000E80715D007EB04100DF1180A90E80E0075
:100C00008AE80E00C068F04201D198190890324677
:100C1000012306A903A800F098FE03AB83E80700B0
:100C20006D10641C002DE3D14FF00103324669467C
:100C3000B8F1000F03A802D000F072FE01E000F04E
:100C400084FEC9E90001C9F808200AB0BDE8F087B0
:100C500098390000007B00F08000704710B54248D2
:100C60005421FFF7FDFB41485421FFF7F9FB4048B1
:100C70005421FFF7F5FB3F493B483C4A3F4B086096
:100C80003D490A603A491960531C0365481C1065C8
:100C9000012008653B48344A39A1784400F0EEF859
:100CA00020B9384878440A3800F08DF937482F4A7F
:100CB00035A1784400F0E2F820B9344878440A3885
:100CC00000F081F932482A4A2FA1784400F0D6F882
:100CD00020B92F4878440A3800F075F9402322489B
:100CE000DC000021224600F0A5F820B12548784418
:100CF000543800F068F91D4822464023002100F0D6
:100D000099F820B121487844543800F05CF918482B
:100D100022461023002100F08DF8002806D01C4840
:100D20007844BDE81040563800F04DB910BD104869
:100D300070B5006D20F001040B4800F015F90B4868
:100D400000F012F90A4800F00FF909E0206D20F0D8
:100D50000105204600F008F9204600F044F82C4632
:100D6000002CF3D170BD0000440100209801002048
:100D7000EC0100209C000020A0000020A400002026
:100D800072000000BC37000077000000AB370000A5
:100D90009B37000000487047400200207546FFF76F
:100DA000F9FFAE4605006946534620F00700854628
:100DB00018B020B5FFF75EFABDE820404FF00006FE
:100DC0004FF000074FF000084FF0000B21F0070133
:100DD000AC46ACE8C009ACE8C009ACE8C009ACE876
:100DE000C0098D46704770B50446051F00F0F2F843
:100DF0000068002C14BF446870BD002C18BFAC42C2
:100E00003CBF20466468F8D301680A18AA4218BF9C
:100E1000456003D12A6805461144016028684119DC
:100E2000A1421CBF6C6070BD6168696021680844A4
:100E3000286070BD70B5C468A50713D0650211D4D1
:100E4000B2F5807F09D0B2F5007F06D0B2F5806F91
:100E500008D1012300F1240106E05D1E6FF07F46FA
:100E6000B54201D3012070BD0161C361416024F42A
:100E700070611143C160002070BD00002DE9F04198
:100E80000C4607461646104600F06EF82078611CA6
:100E900061280AD0722802D077283CD102E00125CF
:100EA000002405E00225042402E0082448F202059B
:100EB00011F8010B2B2806D0622809D011F8010C7B
:100EC00074280AD00BE045F0030544F00204EFE774
:100ED00045F0040544F00104EAE744F01004384604
:100EE000214602F0A3FB411C15D000213161716045
:100EF0004FF40071F560F1617061200704D5304650
:100F00000222002100F0E0F8306D40F00100306571
:100F10003046BDE8F0810020FBE72DE9F0410D46A9
:100F20000646104C206DC10704D0410804D020F0C3
:100F30000104F7E722460EE0542000F096F807007F
:100F40000ED0206D47F0010108435421206538463A
:100F5000FFF786FA3A4629463046BDE8F0418DE76C
:100F60000020D6E7440100202DE9F04704464FF069
:100F700000094FF0FF37C568D4E90486A80707D0F9
:100F8000204600F051F9304602F031FB002802DA29
:100F90003846BDE8F087280502D54046FFF723FF15
:100FA0004C212046FFF75CFA206D20F001002065FF
:100FB0004846EEE710B50446AFF300802046BDE892
:100FC0001040FFF742B910B500F078F9BDE81040C5
:100FD00000F06EB900487047480200207047704723
:100FE0007047704738B504460A4600206946AFF39B
:100FF0000080002808BF38BD02460099204600F056
:1010000084F9012038BD012000F0D3B9F8B5AFF361
:101010000080054600200C46102000BF0646A81997
:10102000A0420DD9324669460020AFF30080070088
:1010300008BF00F0BEF90098A04218BF0546C419C9
:10104000FFF7C8FF05600746F01D20F007004619AE
:10105000284600F053F9B44208BFF8BDA21B314640
:101060003868BDE8F84000F050B970B50646FFF7A3
:10107000B1FF056806F10B0020F00704B4429CBFE5
:10108000002070BD2B466A68BAB11068A04210D328
:1010900004F1080188423CBF5068586007D351688A
:1010A000101941601168091B016058601460101D1F
:1010B00070BD13465268002AE7D121462846FFF743
:1010C00091FF0028DED170BD2DE9F041044616469F
:1010D0000D464769007B80072ED0384602F099FA0A
:1010E00050BB3EB3012E02D0022E25D104E0204693
:1010F00000F025F905441DE0384602F084FAE16865
:10110000002841F01001E16005DA204600F058F8AF
:101110000120BDE8F081C9030BD56268E16A914204
:1011200000D81146A26911442269891A814200DD62
:1011300008460544002D01DA0220EAE7E16A60680A
:10114000E268814206D29103E06203D522F40031C5
:1011500041F01002A6690027AE4213DCE16A814229
:1011600001D90B4600E0034603EB060C2369ACEB08
:10117000030CAC4506DD814201D98C4600E0844673
:101180009C4505D1A760276042F02000A5620DE0D4
:10119000AD1BE669AE1B8142A66000D90846C01AA5
:1011A000281A20605819606022F020000349084086
:1011B000E060002084F84870ABE70000BFCFD7FFA5
:1011C000C16821F4001141F08001C16000218160FB
:1011D000016070472DE9F047814614460E464FF0F6
:1011E000FF383248D5685769054209D03846A169A9
:1011F00002F04AFA002811DB2C48C0430540E560A4
:101200002B4632464946384602F041FAA16920F0A1
:101210000042B21A11440028A16103D02046FFF712
:10122000CFFF4046BDE8F08770B504460569C06A47
:101230006168884200D80846E16821F42011E16025
:10124000C90312D5A84208D02246411B2846FFF701
:10125000C1FF10B14FF0FF3070BD0020E562C4E95E
:101260000150E06820F48030E060002070BD10B5CF
:101270000446C06820F02000E060A16AA0698842AE
:101280000DD02046FFF7D0FFE06820F4405040F03A
:101290001000E060A06AA0612069E062606044F232
:1012A0004001E0688843E06010BD000010000200CB
:1012B000002801D000F01CB87047000010B50146AE
:1012C00002A000F05DF8012010BD00005349475214
:1012D000545245443A2052656469726563743A20F9
:1012E00063616E2774206F70656E3A200000000005
:1012F00001491820ABBEFEE7260002000021016074
:10130000C0E90110704710207047034640688C46C2
:10131000002818BF88423CBF03464068F8D31868CD
:101320001844884207D00CF1030020F00700001D8C
:10133000411A521A0146081D0A60FFF754BD10B544
:101340000146C268900703D0900607D5886A0AE074
:1013500000F03EF801210160881E10BD8B694868CD
:1013600018440B69C01A91F848301BB191F8491024
:10137000401A10BD1103FCD50028FADD401E10BD37
:1013800070B505460C460A2000E06D1C00F018F808
:1013900035B128780028F8D102E0641C00F010F87C
:1013A00014B120780028F8D1BDE870400A2000F080
:1013B00007B810B500F010F8BDE81040FFF778BF8F
:1013C00008B569468DF800000320ABBE08BD704724
:1013D000004870474002002010B5012805D00021C8
:1013E00003A0FFF7CDFF012010BD09A1F8E7000021
:1013F00053494752544D454D3A204F7574206F66FE
:101400002068656170206D656D6F72790000000065
:101410003A2048656170206D656D6F727920636F49
:1014200072727570746564005FEA400C08BF91F0D9
:10143000000F4FEA8C234FEAC12243EA51514FEA91
:101440001C5018BF00F5F0404FEA300018BF41F0C3
:1014500000415FEA6C5C00F02980BCF1FF3F08BFEF
:1014600040F080407047130C06BF12044FF0100C80
:101470004FF0000C130E04BF12020CF1080C130FF6
:1014800004BF12010CF1040C930F04BF92000CF185
:10149000020CD30F04BF52000CF1010C11464FF0A7
:1014A0000002A0F11F00A0EB0C00704711F0004FEC
:1014B00008BF704731F000413FF4D5AF0B0C06BFB9
:1014C00009044FF0100C4FF0000C0B0E04BF090282
:1014D0000CF1080C0B0F04BF09010CF1040C8B0F6D
:1014E00004BF89000CF1020CCB0F04BF49000CF1C2
:1014F000010CCCF12003A0EB0C0022FA03F302FA5A
:101500000CF241EA030100F10100704720F07F4C2A
:1015100080EA030023F07F47ACEB070303F57C531D
:1015200000F0004003F1FF032DE980494FEA154B1D
:1015300009B44FEA144325EA0B4E24EA03480FF29C
:10154000042606EB132749083E785FEA320203FBC4
:101550000667C7F5000707FB06F64FEA54374FEA60
:10156000D64606F1020607FB066CCCF1005C4FEA9A
:101570001C472CEA074C07FB06F40CFB06F504EBB2
:1015800015464FEA961634BF00204FF000404FEA50
:10159000D13706FB07FC4FEA1C4C0CFB0BF7D21BA8
:1015A00003FB0CF761EB07010CFB0EF7B0EB0740F8
:1015B00072EB17420CFB08F734BFA2EB0742B2EB09
:1015C000074261EB17414FEA0C444FEA910706FBD3
:1015D00007FC4FEA1C4C0CFB0BF7B0EBC74072EB5F
:1015E000573203FB0CF734BFA2EBC742B2EBC74242
:1015F00061EB57310CFB0EF7B0EBC70072EB577283
:101600000CFB08F734BFA2EBC702B2EBC70261EBD9
:101610005771039F4FEA816141EA921104EBCC04B8
:101620004FEAD1374FEA826206FB07FC42EA90128A
:101630004FEA80604FEA1C4C0CFB0BF7D21B03FBFC
:101640000CF761EB07010CFB0EF7B0EB074072EBF8
:1016500017420CFB08F734BFA2EB0742B2EB07427C
:1016600061EB17414FEA8C554FEA910704EB9C243C
:1016700006FB07FC4FEA1C4C0CFB0BF7B0EBC7401A
:1016800072EB573203FB0CF734BFA2EBC742B2EB4D
:10169000C74261EB57310CFB0EF7B0EBC70072EBA2
:1016A00057720CFB08F734BFA2EBC702B2EBC702BC
:1016B00061EB577115EB4C254FEA816141EA9211BC
:1016C0004FEA82624FEAD13742EA901206FB07FCEA
:1016D00044F100044FEA80604FEA1C4C0CFB0BF70E
:1016E000D21B03FB0CF761EB07010CFB0EF7B0EB11
:1016F000074072EB17420CFB08F734BFA2EB07421E
:10170000B2EB074261EB174115EB1C154FEA813133
:1017100041EA92414FEA823242EA90424FEA8030F7
:101720004FEA0C7644F1000448EA03434EEA0B48C2
:101730004FF0000EB2EB080C71EB030724BF6246BA
:1017400039464EEB0E0E4FF0000B00185241494146
:101750004BEB0B0BB2EB080C71EB03077BF1000BAF
:1017600024BF624639464EEB0E0E4FF0000B0018B8
:10177000524149414BEB0B0BB2EB080C71EB0307E9
:101780007BF1000B24BF624639464EEB0E0E51EA48
:10179000020718BF46F0010616EB0E7655F100025F
:1017A00054F1000103D5BDE88901BDE80088BDE81A
:1017B0008901BDE80048B619524141EB0101A3F18E
:1017C0000103704780807F7E7D7C7B7A7978777695
:1017D00076757473727171706F6E6E6D6C6C6B6A0E
:1017E0006A696868676666656464636362616160AC
:1017F000605F5F5E5E5D5D5C5C5B5B5A5A59595829
:101800005857575656555555545453535252525192
:10181000515050504F4F4F4E4E4D4D4D4C4C4C4BE8
:101820004B4B4A4A4A49494948484847474747462F
:10183000464645454544444444434343434242426B
:1018400042414141002B9C4630D477002BD01CB53F
:101850004FEA370703B44FF010004FF01001BAF110
:10186000000F06D0BCF1000FDCBF40F0080040F0D4
:1018700008014FF000000FBCBDE810400BF1010B58
:10188000BBF1010F08BF5FEA170722BF12F1010287
:1018900011F101014FF0004143F1000300F000405D
:1018A00043EA00007047F9D35708D0E746EA0646F6
:1018B00013F1400F4FEA16461FDD13F1200FDFBF73
:1018C00016430A46002120335B42BED0C3F12007F5
:1018D00046EA064602FA07F74FEA164646EA0706C0
:1018E000C3F1200722FA03F201FA07F721FA03F104
:1018F0004FF0000342EA0702A7E746EA020646EA7B
:1019000006464FEA164646EA0106BCBF46EA0646C8
:10191000360C4FF000034FF000024FF0000194E747
:101920002DE9804C9A46934670B491E8380007C878
:1019300031EA400C48BF34EA430C03D5FFF7E6FD1B
:10194000FFF780FFF0BCBDE8008C2DE9804C9A4683
:10195000934670B491E8380007C810F0804F08BF74
:1019600013F0804F03D100F005F8FFF76BFFF0BCD8
:10197000BDE8008C20F07F4780EA030023F07F4C15
:1019800007EB0C03A3F57C5300F00040A3F1FE032A
:1019900092F0000F00F0B38095F0000F00F0778018
:1019A0002DE901494FEA11404FEA144621EA004867
:1019B00000FB06FC24EA064708FB06F607FB08F8CE
:1019C00000FB07F718EB06484CEB164C4FEA124B9E
:1019D00018EB07484FEA15464CEB174022EA0B4E2E
:1019E0000BFB06FC25EA06470EFB06F607FB0EFE80
:1019F0000BFB07F71EEB064E4CEB164C4FF00006A8
:101A00001EEB074E4CEB174B18EB0B0840F1000098
:101A100018EB0E0B58EB000840F100008F1A4FF046
:101A200000013CBFC943661B14BFB5EB040C002189
:101A30003CBFC943F61B4FEA17444EEA8E0E27EA15
:101A400004454FEA1C4704FB07622CEA074C05FBE0
:101A500007F70CFB05F604FB0CFC16EB074642EB04
:101A6000174216EB0C4642EB1C421BEB060658EBEA
:101A70000202414146EA9E0601D5BDE80189B61938
:101A8000524141EB0101A3F10103BDE801894FEA95
:101A900014454FEA114724EA054621EA074C05FBA5
:101AA00007F406FB07F70CFB06F105FB0CFC11EB3A
:101AB000074144EB17444FEA124711EB0C4144EB4A
:101AC0001C4422EA074C05FB07F206FB07F70CFB58
:101AD00006F605FB0CFC16EB074642EB174216EB2D
:101AE0000C4642EB1C456A1854F1000148BF704790
:101AF000B619524141EB0101A3F10103704795F082
:101B0000000F37D04FEA11424FEA144721EA02464C
:101B100024EA074C02FB07F106FB07F70CFB06F46F
:101B200002FB0CFC14EB074441EB17414FEA15474D
:101B300014EB0C4441EB1C4125EA074C02FB07F572
:101B400006FB07F70CFB06F602FB0CFC16EB074640
:101B500045EB174516EB0C4645EB1C42121951F1AB
:101B6000000148BF7047B619524141EB0101A3F192
:101B7000010370474FEA14454FEA114724EA05462E
:101B800021EA074C05FB07F106FB07F70CFB06F201
:101B90004FF0000605FB0CFC12EB074241EB17412E
:101BA00012EB0C4251EB1C4148BF7047921841EBBD
:101BB0000101A3F101037047FEE770474FF4804035
:101BC00000F018B870B5044600F01EF90546601C18
:101BD00002D004480078044400F016F9401BA042EB
:101BE000FAD370BD8C0000200149012008627047C3
:101BF00000000020044910B50A68024202D00860C3
:101C0000FFF7F2FF10BD0000143C01402DE9F84F32
:101C1000DFF8BCA10022012503264FF00F090AF1CD
:101C2000040BAAF1040E00BF0B6805FA02F423406E
:101C3000A34270D10F7907F00307012F01D0022FC3
:101C400016D187684FEA420806FA08FC27EA0C0713
:101C5000D1F80CC00CFA08FC4CEA070CC0F808C01C
:101C60004768A7430C79C4F3001494403C43446094
:101C70000C79E443A4070AD0C4684FEA420C06FA80
:101C80000CF7BC438F6807FA0CF72743C7600C7941
:101C900004F00304022C12D1D40800EB840CDCF80D
:101CA00020405707FF0E09FA07F824EA0804D1F884
:101CB000108008FA07F848EA0408CCF82080046885
:101CC0004FEA420C06FA0CF7BC430F7907F0030702
:101CD00007FA0CF7274307604C6814F4403F70D0B4
:101CE0003C4C276847F480472760246822F00307AC
:101CF00004F480440094384C07EB040CDCF80848EA
:101D000097074FEA177809FA08F7BC43334FB842F0
:101D100002D1002724E054E0314FB84201D101271D
:101D20001EE0304FB84201D1022719E02E4FB842D1
:101D300001D1032714E02D4FB84201D104270FE051
:101D40002B4FB84201D105270AE02A4FB84201D1F2
:101D5000062705E0284FB84201D1072700E00827F1
:101D600007FA08F72743CCF80878DAF80040574616
:101D7000D1F804C09C435FEACC2C00D51C433C60E6
:101D8000DBF800405F46D1F804C09C435FEA8C2C2E
:101D900000D51C433C60DEF800407746D1F804C013
:101DA0009C435FEA8C3C00D51C433C60084F083FD5
:101DB0003C68D1F804C09C435FEACC3C00D51C438E
:101DC0003C60521C102AFFF42FAFBDE8F88F0000D2
:101DD000083C01404438024000300140000002400D
:101DE0000004024000080240000C024000100240C3
:101DF0000014024000180240001C02400AB1816138
:101E000070470904FBE70000014880687047000044
:101E10008C0000200248816802781144816070477C
:101E20008C0000200B4810B5016841F4007101607E
:101E3000016841F480610160016841F480710160D2
:101E4000032000F071F8002000F006F800F024F8FC
:101E5000002010BD003C024070B50D4D04464FF40B
:101E60007A712878B1FBF0F00A490968B1FBF0F00B
:101E700000F003FE48B9102C07D200222146501E64
:101E800000F032F800206C6070BD012070BD0000D1
:101E90008C000020980000200B4882B0016841F4BB
:101EA00080410160006800F4804000900648001FF7
:101EB000016841F080510160006800F0805000909E
:101EC000072002B000F030B844380240002809DB97
:101ED00000F01F02012191404009800000F1E02044
:101EE000C0F8001170470000F0B40E4B1B680C46A0
:101EF000C3F30223C3F10705042D00D90425191DDE
:101F0000072901D2002300E0DB1E012606FA05F1B5
:101F1000491E214099409E40761E16403143F0BC38
:101F200001F055BB0CED00E0064900F0070208681F
:101F30004FF6FF03184040EA0220034A10430860AE
:101F4000704700000CED00E00000FA052DE9F047B5
:101F50000E46050065D0DFF81481D8F80000F7B20E
:101F600000F00700B04207D288F80070D8F80000EF
:101F700000F00700B04254D128683D4C810712D5CB
:101F8000400703D5206840F4E0502060287800071F
:101F900003D5206840F4604020602068A96820F0E4
:101FA000F000084320602878C0072DD030496868C9
:101FB0000839012812D0022813D0032811D009684B
:101FC000890700292DDA216821F0030101432160EE
:101FD000FFF71AFF814641F2883A0EE0096889034B
:101FE000EFE709688901ECE7FFF70EFFA0EB0901B5
:101FF000514502D90320BDE8F0872068696800F0E8
:102000000C00B0EB810FEFD1D8F80010404601F082
:102010000701B14207D90770006800F00700B0421D
:1020200001D00120E7E72878400705D52068E96856
:1020300020F4E050084320602878000706D5206887
:10204000296920F4604040EAC100206000F038F8BF
:102050002168084AC1F30311515CC8400649086071
:1020600006480068FFF7F8FE0020C4E7003C024085
:1020700008380240424400089800002090000020E8
:102080000448054900680968044AC1F38221515C8B
:10209000C8407047980000200838024052440008A9
:1020A0000448054900680968044AC1F34231515C9B
:1020B000C840704798000020083802405244000889
:1020C000154810B5006810F00C02144813D04110E8
:1020D000042A0FD0082A0ED10F4C241F226823682F
:1020E00002F03F025B0207D52068C0F38810A0FB16
:1020F000010106E0084610BD2168C1F38811A1FB6B
:1021000000010023FEF7C8F82168C1F30141491C12
:102110004900B0FBF1F010BD083802400024F40083
:102120002DE9F84F04006ED02078DFF84C93C007FB
:10213000A9F104054AD009F104000168C1F3810145
:10214000012908D00068C0F3810002280AD1D9F81B
:102150000000400206D52868800337D56068002853
:10216000E1D033E06068B0F5803F10D0B0F5A02F2B
:10217000286810D020F480302860286820F480205F
:1021800028606068A8B1FFF73FFE06460DE02868AA
:1021900040F48030F4E740F480202860F7E700BF87
:1021A000FFF732FE801B642873D828688003F7D5B8
:1021B0000CE0FFF729FE064605E000BFFFF724FE0E
:1021C000801B6428F0D828688003F7D42078DFF8D3
:1021D000AC8280074FF0000A3ED5A748001D016879
:1021E00011F00C0F08D00068C0F3810002280BD159
:1021F000D9F80000400207D42868800716D5E068A7
:10220000012800D112E033E1E068B8B10120C8F83C
:102210000000FFF7F9FD064605E000BFFFF7F4FDFB
:10222000801B0228C0D828688007F7D52868216954
:1022300020F0F80040EAC10028600DE0C8F800A0D6
:10224000FFF7E2FD064604E0FFF7DEFD801B0228F3
:102250001FD828688007F7D42078000722D5864F3A
:1022600087486169703771B101210160FFF7CCFDCA
:10227000064604E0FFF7C8FD801B022809D838682D
:102280008007F7D50EE0C0F800A0FFF7BDFD0646B9
:1022900005E082E0FFF7B8FD801B02287DD8386892
:1022A0008007F7D42078400768D5DFF8CCB1002745
:1022B0000BF13C0BDBF80000C0000BD4DBF8001086
:1022C00041F08051CBF80010DBF80000012700F04E
:1022D000805000906B4E3068C00510D4306840F4D8
:1022E00080703060FFF790FD009005E0FFF78CFDF7
:1022F0000099401A022850D83068C005F6D55E4EC5
:10230000A0686C3601280FD00528306810D020F066
:1023100001003060306820F004003060A068B8B17F
:10232000FFF772FD00900FE0306840F00100F4E725
:1023300040F004003060F7E7FFF766FD0099411AAE
:1023400041F28830814266D830688007F4D50EE0CB
:10235000FFF75AFD009007E0FFF756FD0099411A7C
:1023600041F28830814256D830688007F4D42FB1CA
:10237000DBF8001021F08051CBF80010A069C8B341
:102380003D49091D0968C1F3810102294AD002288B
:10239000504607D0C8F8600000E03CE0FFF734FD8D
:1023A00004463BE04746C8F86000FFF72DFD0646AF
:1023B00005E000BFFFF728FD801B02282BD8286806
:1023C0008001F7D4D4E907010843A16A2E4A4908DD
:1023D00002EB0141626A41EA8211084394F82C1031
:1023E00040EA0161C9F8001001203866FFF70CFDD2
:1023F000044606E03EE000BFFFF706FD001B022892
:1024000009D828688001F7D534E000BFFFF7FCFC4D
:10241000001B022802D90320BDE8F88F286880013C
:10242000F4D427E00128F7D0D9F80000E26900F4DD
:10243000800191421CD1226A00F03F01914217D1E4
:1024400047F6C071626A0140B1EB821F10D1A26AE7
:102450004FF0FF3300F4403103EB5202B1EB024F77
:1024600006D194F82C1000F07060B0EB016F01D031
:102470000120D1E70020CFE70438024000004742A6
:10248000800E4742007000400000FFFF70B504005E
:1024900009D0606A002540B125616561A56294F8A4
:1024A000510040B10CE0012070BD6068B0F5827F42
:1024B000F4D0E561F2E784F85050204600F044F88B
:1024C000022084F851002068016821F04001016079
:1024D000A088218900F4827001F404410843A18995
:1024E00001F400610843217C01F002010843217DD1
:1024F00001F001010843218B01F400710843217FA1
:1025000001F03801084394F8201001F080010843DD
:10251000218D01F40051084321680860A06904215D
:1025200001EA104094F8241001F0100108432168DA
:1025300048602068C16921F40061C16165650120BE
:1025400084F85100002070BDF0B587B00446142116
:102550006846FDF785FF1C492068884232D11B4838
:102560000024016841F480410160006800F480406B
:10257000059016481038016841F0040101600168B7
:1025800001F004010591016841F002010160006859
:10259000022500F0020005900C20CDE9000502AAFA
:1025A0000326052782E8D00069460948FFF72EFB7D
:1025B0006802CDE9000502AA694682E8D000054814
:1025C000FFF724FB07B0F0BD003800404038024060
:1025D00000080240000402402DE9F84F044640681C
:1025E0000025984616460F464FF0040BB0F5827F43
:1025F00001D1A06888B194F85000012818D00120BA
:1026000084F85000FFF700FC814694F851004FF029
:10261000000A01280ED0022582E084F851B013464A
:102620000A462046CDF8008000F036F9BDE8F88F64
:102630000220FBE7002F72D0002E70D084F851B03A
:10264000C4F854A0A763A687E687C4F830A0A4F80E
:1026500034A0A4F836A0C4F840A0C4F844A0A068F0
:10266000B0F5004F09D12068016821F040010160F8
:102670002068016821F480410160206801684906F2
:1026800003D4016841F040010160E068D8B139E04D
:1026900020688168C90709D0007BA16B0870A06B16
:1026A000401CA063E08F401EE0870CE0FFF7ACFB0E
:1026B000A0EB0901414503D3B8F1FF3F03D036E059
:1026C000B8F1000F33D0E08F0028E1D11DE0206881
:1026D0008168C90709D0C068A16B0880A06B801C05
:1026E000A063E08F401EE0870CE0FFF78DFBA0EBBE
:1026F0000901414503D3B8F1FF3F03D017E0B8F11A
:10270000000F14D0E08F0028E1D14A464146204610
:1027100000F021FB08B120206065606D00B101254B
:10272000012084F8510084F850A028467EE7032554
:10273000F6E72DE9F84F044690F8500000271D46B3
:102740001646894601280DD04FF0010B84F850B091
:10275000FFF75AFB804694F85100BA46012804D08E
:10276000022793E00220BDE8F88FB9F1000F73D083
:10277000002E71D0032084F85100C4F854A0C4F88E
:102780003090A686E686C4F838A0A4F83CA0A4F849
:102790003EA0C4F844A0C4F840A0A068B0F5004F23
:1027A00009D12068016821F04001016020680168BA
:1027B00041F48041016020680168490603D4016842
:1027C00041F040010160E068B0F5006F606803D03F
:1027D00030B3012E24D041E008B1012E1CD1206B72
:1027E00021680088C86006E020688168890709D5EB
:1027F000216B0988C160206B801C2063E08E401E25
:10280000E08609E0FFF700FBA0EB0800A84202D336
:10281000681C01D031E07DB3E08E0028E4D120E0D7
:10282000206B21680078087306E0206881688907BA
:1028300009D5216B09780173206B401C2063E08E61
:10284000401EE0860AE0FFF7DFFAA0EB0800A8428E
:1028500003D3681C02D010E017E06DB1E08E0028B1
:10286000E3D142462946204600F0A4FA08B12020D0
:102870006065A06818B106E0FFE7032706E020685E
:10288000C16880680090606D00B1012784F851B084
:1028900084F850A0384666E72DE9F84F044690F8D2
:1028A000500000270A9E1D4692468B464FF00109B4
:1028B00001280ED0012084F85000FFF7A5FA8046C9
:1028C00094F85100616801280CD0B1F5827F07D1DE
:1028D00002E00220BDE8F88FA16809B9042801D000
:1028E0000227C2E0BBF1000F27D0BAF1000F24D0BD
:1028F0001DB394F85100042802D0052084F851003B
:1029000000206065C4F838A0E587A587C4F830B01A
:10291000E586A5862064606420680168490603D4C2
:10292000016841F040010160E068B0F5006F606847
:1029300005D0E8B3012D46D07FE0012795E008B12E
:10294000012D39D1206B21680088C860206B801C64
:102950002063E08E401EE0862EE0206881688907B3
:102960000FD5E18E69B1B9F1010F0AD1216B098848
:10297000C160206B801C2063E08E401EE0864FF01B
:10298000000920688168C9070CD0E18F51B1C06887
:10299000A16B0880A06B801CA063E08F401EE087C5
:1029A0004FF00109FFF730FAA0EB0800B04200E059
:1029B00009E001D3701C50D1E08E0028CDD1E08F0A
:1029C0000028CAD13FE0206B216800780873206B93
:1029D000401C2063E08E401EE0862EE02068816867
:1029E00089070FD5E18E69B1B9F1010F0AD1216BC9
:1029F00009780173206B401C2063E08E401EE08646
:102A00004FF0000920688168C9070CD0E18F51B1EF
:102A1000C068A16B0870A06B401CA063E08F401ED3
:102A2000E0874FF00109FFF7EFF9A0EB0800B04293
:102A300002D3701C01D010E07EB1E08E0028CDD111
:102A4000E08F0028CAD142463146204600F0B2F954
:102A500028B101272020606507E0032705E0A06872
:102A600018B92068C16880680090012084F851007E
:102A7000002084F8500038462CE710B5401EB0F115
:102A8000807F01D3012010BD4FF0E02460610F2151
:102A9000601700F09CFD0020A0610720206100204D
:102AA00010BD70B5040004D094F83D00002510B1AD
:102AB00006E0012070BD84F83C50204600F022F86A
:102AC000242084F83D002068C16821F40051C160D1
:102AD000204600F0A1FC2068016921F490410161C9
:102AE0002068416921F02A0141612068C16841F4F0
:102AF0000051C1602564202084F83D0084F83E0028
:102B0000002070BD10B586B0044614216846FDF75C
:102B1000A7FC13492068884220D11248002102688E
:102B200042F020020260006800F0200005900D488D
:102B30001438026842F004020260006800F00400E9
:102B40000590C02000900220CDE9010103200390F0
:102B50000820049069460448FFF758F806B010BDF5
:102B60000014014044380240000802402DE9F843B7
:102B7000044690F83D001F4616460D4620284CD1CD
:102B8000C5B1BEB194F83C00012846D0012084F8BC
:102B90003C004FF00008C4F84080212084F83D003C
:102BA000FFF732F9A6848146E684A068B0F5805F1D
:102BB00003D004E00120BDE8F883206928B12E4647
:102BC0005FF0000584F83C800EE00026FAE78021E3
:102BD000204600F0A7FCA0B9AEB116F8010B2168A1
:102BE0004860E08C401EE084E08C4B464FF00002D1
:102BF00000970028EBD14FF04001204600F092FCF6
:102C000030B10320D7E735F8020BC0F30800E6E740
:102C1000202084F83D000020CDE70220CBE7FEE72E
:102C200007490968C9070AD0054980390968C907F1
:102C300005D04FF060410A68002AFCD00870704748
:102C4000800E00E0F0B587B014216846FDF708FC5F
:102C50002A480024016841F004010160016801F084
:102C600004010591016841F001010160016801F072
:102C700001010591016841F010010160016801F056
:102C800010010591016841F002010160016801F045
:102C900002010591016841F0080101600068184FC8
:102CA00000F008004FF47046059000223146384687
:102CB000FFF7A4F80125CDE90054694611480294B4
:102CC000FEF7A4FFA80300904FF48810CDE901049B
:102CD00069460D48FEF79AFF0096CDE90154694612
:102CE00038460394FEF792FF002211462820FFF792
:102CF000FBF82820FFF7EAF807B0F0BD30380240B3
:102D0000000C024000000240001002400F4810B5C5
:102D10000D4901604FF48271416000218160C16002
:102D20004FF400720161C0E905120822C0E90721D1
:102D3000416281620A21C162FFF7A8FB002801D02D
:102D400072B6FEE710BD000000380040A800002069
:102D5000FEE7FEE77047F8B5044640684FF482731B
:102D6000984221D1A0684FF48065B0F5004F01D0A2
:102D7000A8420AD12068066826F04006066060680E
:102D8000984211D1A068A8420ED000920B460022B2
:102D90008021204600F03AF8002804D0606D40F011
:102DA000200060650320F8BD00920B46002201213F
:102DB000EFE7000038B504461248134B0068B0FB3B
:102DC000F3F04FF47A73584300906068B0F5827F57
:102DD0000DD10B46009200228021204600F016F80B
:102DE00070B1606D40F020006065032038BD009830
:102DF00030B1401E009020688068C0430006F6D5C0
:102E0000002038BD9800002000366E012DE9F843FF
:102E10001E46914688460446089DFEF7F5FF401B76
:102E2000351AFEF7F1FF074625480068C0F3CB309E
:102E3000684338E0701C37D0FEF7E6FFC01BA8429D
:102E400003D215B1009860B32CE02068416821F0EE
:102E5000E00141606068B0F5827F0BD1A068B0F5F9
:102E6000004F02D0B0F5806F04D12068016821F0D6
:102E700040010160A06AB0F5005F09D120680168D7
:102E800021F4005101602068016841F400510160A3
:102E9000012084F85100002084F850000320BDE890
:102EA000F8830025401E00902068816838EA010000
:102EB00004D000214945BDD10020F0E70121F9E708
:102EC000980000207047FEF7A5BF000010B592B033
:102ED00030216846FDF7C4FA14210CA8FDF7C0FAAA
:102EE00018480024016841F080510160006800F03A
:102EF000805011901448016841F4804101600068DD
:102F0000069400F48040119002200090012003906C
:102F1000102004906846FFF703F908B172B6FEE787
:102F20000F20CDE90C044FF4A050CDE90E401090D5
:102F300000210CA8FFF70AF8002801D072B6FEE7BE
:102F400012B010BD403802400070004002480168D5
:102F500041F470010160704788ED00E02DE9F05FF9
:102F60004FF00008D04CD14F404684F800804546D1
:102F700004F16C094FF400464FF47A7AC0B240F085
:102F80004000207019F80500607000223146384674
:102F9000FEF734FF32230222C349C548FFF7C9FBBD
:102FA000012231463846FEF729FF5046FEF70AFE59
:102FB00020786D1C401C20700A2DDFDB0022B346F8
:102FC0003146B9463846FEF719FF402020700325E8
:102FD000657032230222B449B548FFF7AAFB0122EB
:102FE00059464846FEF70AFF57465046FEF7EAFDA7
:102FF000002259464846FEF701FF4220207007266E
:10300000667032230222A849A948FFF792FB0122E9
:1030100059464846FEF7F2FE3846FEF7D3FDA5A016
:10302000FDF7B2F9002259464846FEF7E7FE9E4CEE
:103030003223143C012284F8008021469C48FFF78B
:1030400078FB32230122611C9948FFF7C5FA01225F
:1030500059464846FEF7D2FE6178A1A0FDF794F9E3
:103060003846FEF7AFFD002259464846FEF7C6FE39
:103070000120A41C02462070322321468C48FFF711
:1030800058FB32230122611C8948FFF7A5FA01226F
:1030900059464846FEF7B2FE617897A0FDF774F9ED
:1030A0003846FEF78FFD002259464846FEF7A6FE39
:1030B000A41C022020703223012221467C48FFF705
:1030C00038FB32230122611C7948FFF785FA01227F
:1030D00059464846FEF792FE61788DA0FDF754F9F7
:1030E0003846FEF76FFD002259464846FEF786FE39
:1030F000A41C32232570012221466D48FFF719FBDD
:1031000032230122611C6A48FFF766FA0122594600
:103110004846FEF773FE617884A0FDF735F938461E
:10312000FEF750FD002259464846FEF767FEA41CF4
:10313000042020703223012221465D48FFF7F9FA6E
:1031400032230122611C5A48FFF746FA01225946F0
:103150004846FEF753FE61787BA0FDF715F9384627
:10316000FEF730FD002259464846FEF747FEA41CF4
:10317000052020703223012221464D48FFF7D9FA5D
:1031800032230122611C4A48FFF726FA01225946E0
:103190004846FEF733FE617873A0FDF7F5F8384630
:1031A000FEF710FD002259464846FEF727FEA41CF4
:1031B000062020703223012221463D48FFF7B9FA4C
:1031C00032230122611C3A48FFF706FA01225946D0
:1031D0004846FEF713FE61786BA0FDF7D5F8384638
:1031E000FEF7F0FC002259464846FEF707FEA41CF5
:1031F00032232670012221462D48FFF79AFA322306
:103200000122611C2A48FFF7E7F901225946484686
:10321000FEF7F4FD617864A0FDF7B6F83846FEF7D6
:10322000D1FC002259464846FEF7E8FDA41C0820C0
:1032300020703223012221461D48FFF77AFA3223FB
:103240000122611C1A48FFF7C7F901225946484676
:10325000FEF7D4FD61785CA0FDF796F83846FEF7DE
:10326000B1FC002259464846FEF7C8FDA41C0920BF
:1032700020703223012221460D48FFF75AFA3223EB
:103280000122611C0A48FFF7A7F901225946484666
:10329000FEF7B4FD617856A0FDF776F83846BDE834
:1032A000F05FFEF78FBC000014000020000C02400D
:1032B000A80000200A0D205444435F3732303020EC
:1032C000524547495354455220414654455220499E
:1032D0004E495449414C495A4154494F4E0000000F
:1032E0000A0D20434F4E464947315F5245473A3019
:1032F00078302578000000000A0D20434F4E4649E3
:1033000047325F5245473A30783025780000000058
:103310000A0D20494E545250545F53544154555352
:103320005F5245473A307830257800000A0D204931
:103330004E545250545F4D41534B5F5245473A30C3
:1033400078302578000000000A0D20434F41525389
:10335000455F434F554E5445525F4F56485F524567
:10336000473A3078302578000A0D20434F415253B8
:10337000455F434F554E5445525F4F564C5F524543
:10338000473A3078302578000A0D20434C4F434BA4
:103390005F434F554E5445525F4F56485F52454725
:1033A0003A307830257800000A0D20434C4F434BCB
:1033B0005F434F554E5445525F4F564C5F52454701
:1033C0003A307830257800000A0D20434C4F434BAB
:1033D0005F434F554E5445525F53544F505F4D41DC
:1033E000534B485F5245473A30783025780000000B
:1033F0000A0D20434C4F434B5F434F554E544552AB
:103400005F53544F505F4D41534B4C5F5245473AC9
:10341000307830257800000070B5044600680169F6
:10342000E26821F44051114301612169A068E26919
:1034300008436169114308432168CA6849F20C6373
:103440009A430243CA6020684169A26921F440712D
:103450001143416131492068884202D03049884295
:1034600002D1FEF71DFE01E0FEF70AFEE26900232D
:10347000192164253226B2F5004F626828D0A0FBDE
:103480000101930F9200FCF707FF0146B0FBF5F036
:103490006FF01802504301EB800006EB0010B0FB08
:1034A000F5F000F0F002B1FBF5F002EB0012B1FB19
:1034B000F5F06FF01803584301EB800006EB0010A5
:1034C000B0FBF5F000F00F0021681044886070BD7B
:1034D000A0FB010192185B41FCF7DEFE0146B0FB48
:1034E000F5F00201B1FBF5F06FF01803584301EB62
:1034F000800006EBC000B0FBF5F000F0F80002EB36
:103500004002B1FBF5F0584301EB800006EBC00030
:10351000B0FBF5F000F00700D6E700000010014016
:10352000001401402DE9F041984617460E46044626
:10353000069D27E0681C25D02DB1FEF765FCA0EBA9
:103540000800A8421ED920680C3050E8001F21F462
:10355000D07140E80012002AF5D12068143050E8FC
:10356000001F21F0010140E80012002AF5D12020BF
:1035700084F83D0084F83E00002084F83C000320DD
:10358000BDE8F0812068006836EA000004D0002021
:10359000B842CFD00020F3E70120F9E7FEE703B4FB
:1035A00001984100009850EAC12018BF04204A0D3C
:1035B00018BF40F0010040F2FF72B2EB515F08BF4C
:1035C00040F00200012808BF052002B0704709073B
:1035D000090E002804DB00F1E02080F80014704799
:1035E00000F00F0000F1E02080F8141D70476FF428
:1035F0000041401804D0012803D0022801D008144B
:103600007047002070476FF40041401800D0002040
:1036100070476FF40041401805D0012802D00228FD
:1036200001D00020704701207047000070B50400F1
:103630004FF0FF3511D020783A280ED10CA120464A
:10364000FCF736FF58B10CA12046FCF731FF48B11A
:103650000BA12046FCF72CFF38B1284670BD48F27C
:10366000010070BD48F2020070BD48F2030070BD59
:103670003A535444494E00003A5354444F55540071
:103680003A535444455252004FF0FF30704710B542
:103690000C466FF40041411813464FF0FF3013D031
:1036A000012902D002290FD106E063B114F8010B01
:1036B000FFF7B6FA5B1EF8E72BB114F8010BFFF722
:1036C000AFFA5B1EF8E7002010BD000013B54FF6FF
:1036D000FF73012269460248FFF748FA00981CBDB3
:1036E000000100202DED068BFEF79CFBFFF7EEFBA3
:1036F000FFF7A8FAFFF70AFBFB48FA490C22016022
:103700004FF4E131416000218160C160C0E90412E1
:103710008161C161FFF7C5F908B172B6FEE7F3A098
:10372000FCF732FEF5A0FCF72FFE00224FF480419B
:10373000FC48FEF763FB4FF47A794846FEF742FAFD
:1037400001229103F748FEF759FBFFF707FCF6A0AB
:10375000FCF71AFE4FF4004A00225146F148FEF7EA
:103760004DFBFC494220322308701F204870DE4880
:1037700002225838FEF7DDFF01225146E948FEF7E4
:103780003DFB4846FEF71EFA00225146E548FEF78B
:1037900035FBF0480221322301700146D248012254
:1037A0005838FEF7C6FFEB49CF4832230122891C67
:1037B0005838FEF711FF01225146DA48FEF71EFB8A
:1037C0004846FEF7FFF9E4A0FCF7DEFD0022514673
:1037D000D448FEF713FB00225146D248FEF70EFBF9
:1037E000DC484021C01C3223017003214170014696
:1037F000BD4802225838FEF79CFF01225146C948B5
:10380000FEF7FCFA012254032146C648FEF7F6FAF9
:103810000020FEF7D7F900222146C248FEF7EEFA53
:103820000420FEF7CFF9012214032146BD48FEF71C
:10383000E5FA0020FEF7C6F900222146B948FEF756
:10384000DDFA40F6B830FEF7BDF9CBA0FCF79CFDE1
:10385000D3A0FCF799FD00225146B248FEF7CEFAFC
:10386000BC4C0220E41E322320709F4801222146D6
:103870005838FEF75EFF9C4832230322611C5838FB
:10388000FEF7AAFE01225146A648FEF7B7FA4846BF
:10389000FEF798F900225146A248FEF7AFFA0D3420
:1038A0001020207090483223012221465838FEF71C
:1038B00040FF8D4832230322611C5838FEF78CFEEE
:1038C000012251469748FEF799FA4846FEF77AF9E1
:1038D000002251469348FEF791FA251D11202870C9
:1038E000814832230122211D5838FEF722FF7E48ED
:1038F00032230322691C5838FEF76EFE012251461E
:103900008848FEF77BFA4846FEF75CF900225146EC
:103910008448FEF773FA04F11007122038707248D9
:103920003223012239465838FEF703FF6E4832230E
:103930000322791C5838FEF74FFE01225146794880
:10394000FEF75CFA4846FEF73DF9002251467548FD
:10395000FEF754FA2E1D1B203070634832230122DB
:10396000291D5838FEF7E5FE5F4832230322711CFB
:103970005838FEF731FE012251466A48FEF73EFAFA
:103980004846FEF71FF9002251466648FEF736FA10
:1039900004F10C081C21544888F80010322301223D
:1039A000311D5838FEF7C5FE4F483223032208F177
:1039B00001015838FEF710FE012251465948FEF722
:1039C0001DFA4846FEF7FEF86178A27804F1180067
:1039D00002EB0121E278243C02EB012101608946DF
:1039E0007978BA7802EB0121FA7802EB0127476077
:1039F0006878A97801EB0020E97801EB0025A56340
:103A00007178B27804F1440002EB0121F27802EB04
:103A10000121016098F8012098F8023003EB02229E
:103A200098F8033003EB02224260501A092190FB00
:103A3000F1F000F0FFFA41EC100B84ED160B9FED56
:103A4000629B84ED149B53EC192B00F00BFB41ECB3
:103A5000100B84ED1C0B53EC102B9FED5D0B51EC08
:103A6000100B00F08FF941EC180B384684ED188BE1
:103A700000F0E0FA53EC182B00F0F4FA41EC1A0BCA
:103A8000284600F0D7FA53EC192B00F07BF941ECF3
:103A9000190B484600F0CEFA53EC182B00F0E2FA6E
:103AA00053EC192B00F0C6F853EC1A2B00F0D8FB9E
:103AB00041EC180B84ED1A8B9FED470B53EC102B48
:103AC00000F0D0FAC4E91E0153EC182B44A0FCF717
:103AD0005BFC94ED1E0B46A053EC102BFCF754FC42
:103AE000FEE7000000140140000100200A0D5444CC
:103AF00043373230300A0D20000000000A0D496EB5
:103B0000697469616C697A696E672054444337321D
:103B10003030205265676973746572732E2E2E2EB5
:103B200020000000000C02400A0D436C6561722009
:103B30006572726F7220666C61677320616E6420BB
:103B40007265736574207374617465206D61636858
:103B5000696E65001A0000200A0D207365742073D9
:103B600074617274206D6561737572656D656E74D4
:103B700020626974000000000A0D204D65617375B4
:103B800072656D656E7420446F6E652E2E2E4361D6
:103B90006C63756C6174696E6720544F4620000039
:103BA000200A0D2052656164696E6720616C6C208B
:103BB00074686520726573756C74207265676973CB
:103BC00074657273000000000000000080845E4194
:103BD000000000000000F03F0000000000408F40A7
:103BE0000A0D20544F463D2025662073000000003A
:103BF0000A0D20544F4628696E206D73293D2025FB
:103C000066206D730000000010B500290AD0087806
:103C1000002807D005487844FCF74AFC002801D06A
:103C2000002010BD0248784410BD00003A09000091
:103C30003209000010B591EA030F48BF83F000433A
:103C400000F11683841A71EB030C05D2121943EBB1
:103C50000C03001B61EB0C01DFF824E14FEA115467
:103C6000A4EB135C1EEA430F18BF9EEA445F73D0B7
:103C700023EA0E03DCF1200E21EA045143F4801301
:103C800032D322FA0CFE10EB0E0023FA0CFE41EBAD
:103C90000E01CCF1200E03FA0EFE10EB0E0051F1D6
:103CA0000001B1F5801FCCF1200E32D201EB04519E
:103CB00012FA0EF2BDE8104058BF7047401C38BFE2
:103CC0005FEA420218BF7047002814BF20F00100CD
:103CD00041F100014FEA410313F5001F38BF70475F
:103CE000A1F1C04100F0B6BA012A43EB0302ACF1E6
:103CF000200CDCF11F0E32BF4FF0000E23FA0CF344
:103D000010EB030041EB0451B4EB115FD0D0A1EBF9
:103D1000045101F5801149085FEA300001EB0451BC
:103D20000ED350F1000038BF12FA0EFE08D1BDE8E4
:103D30001040C9E7401C38BF5FEA4202CAD1C3E75E
:103D4000BDE810404FEA410313F5001F38BF70472C
:103D5000A1F1C04100F07EBA9EEA445F08D011EAAA
:103D60005E0FBDE8104004BF01F000410020704725
:103D7000BDE8104070B500F01FFA00BF64FBBE3E06
:103D80000000E0FF2DE9C04130B4DFF8A0C23CEAFA
:103D9000111418BF3CEA131400F0EC8081EA03050B
:103DA0001CEA111444EAD57418BF1CEA131500F07C
:103DB000C780A4EB05044FF0004545EAC12145EA60
:103DC000C32341EA505143EA525304F17F749942AC
:103DD00004F500344FEAC0204FEAC22208BF9042E7
:103DE00000F09C804FEA13650FF24016765D4FEAB3
:103DF000134506FB05F7C7F1807706FB07F74FEA87
:103E0000D737A7FB03687642C8F58038A7FB06CEF4
:103E100038BFA8F1010807FB08E64FF0000EA6FB2B
:103E2000028CE6FB03CEDCF1000CCEF1004E38BF75
:103E3000AEF1010EA6FB0C584FF000074FF0000545
:103E4000E6FB0E87A1FB08C6A0FB07CE16EB0E060D
:103E500045F10005E1FB076515F1E04E7EBFA4F5D5
:103E600080345FEA46066D4116F1800745F1000592
:103E70004FEA17274FEA066647EA0567A6F1DE46CE
:103E8000B6F1805F4FEA15251FD9384624F0010CA2
:103E900005EBC471BCF1FE6F01EB0C1102D8F0BC54
:103EA000BDE8008124425CBF01F5801E9EEAC47F0C
:103EB00002D4F0BCBDE80081244238D4F0BCA1F1AA
:103EC000C041BDE8004100F0C5B94FEAD22242EA44
:103ED00043524FEAD323A7FB02864FEAD02040EAA1
:103EE000415007FB03661EEA0E0F4FEAD12105FB86
:103EF000026658BFA6EB0056B6EB00564FEA520ECC
:103F00004EEAC37E18EB0E0E56EB530EBDD518EBE2
:103F100002085E417F1C55F10005B6E74FF480159D
:103F20004FF000074FF000064FF00008ADE7F0BC7F
:103F30004FF0000001F1C04101F00041BDE80081F7
:103F400011EA0C1F0CEA131500D00CE013EA0C1F49
:103F500000F025804FF00000F0BC81EA030101F081
:103F60000041BDE80081F0BCBDE8004181EA0301E9
:103F700000F070B9F0BCBDE8004170B500F01CF96C
:103F8000097EFC3E00F007B881EA03014FF0000013
:103F900001F00041704781EA030100F05BB9F0BC19
:103FA000BDE800414FF0000021497047FFFDFBF9DB
:103FB000F7F5F4F2F0EEEDEBE9E8E6E4E3E1E0DE5C
:103FC000DDDBDAD8D7D5D4D3D1D0CFCDCCCBCAC8CE
:103FD000C7C6C5C4C2C1C0BFBEBDBCBBBAB9B8B7F5
:103FE000B6B5B4B3B2B1B0AFAEADACABAAA9A8A8E8
:103FF000A7A6A5A4A3A3A2A1A09F9F9E9D9C9C9BB6
:104000009A99999897979695959493939291919060
:104010008F8F8E8E8D8C8C8B8B8A898988888787F1
:104020008685858484838382828181800000FF0766
:104030000000F87F10F0004248BF4042B0FA80F321
:1040400010FA03F10AD0C3F11D0303F580634FEAB0
:10405000415002EB035202EBD12170474FF00000B8
:1040600070470000DFF848C170B51CEA111E1EBF82
:104070001CEA13159EEA0C0F95EA0C0F00F06F80F6
:1040800081EA030423EA4C134EEAD47E21EA4C1160
:1040900041F4801143F48013AE44A1FB024CA0FB19
:1040A0000365AEF17F7E361955EB0C05A1FB034C81
:1040B0004CF10003A0FB021C16EB0C06654153F10A
:1040C0000003094218BF46F0010613F4007F0BD12C
:1040D0004FEA03314FEA0530340341EA155140EA13
:1040E00016506FF003020AE04FEAC3214FEAC520E1
:1040F000F40241EA555140EA56506FF0020202EBD9
:104100002E4201EB025585EACE710AD05FEA440CDB
:1041100018BF24F0004450F1000041F1000120EAF2
:10412000D47040F2FE7C624500D270BDA84214BF3C
:104130004FF080444FF04044002E08BF0024BEF1F1
:10414000806FA8BFA1F1C041BDE8704080F28280BD
:104150004FF0000001F1C04101F0004170479EEABC
:104160000C0F0CEA131518BF95EA0C0F06D04FF090
:10417000000081EA030E0EF0004170BD00F01CF853
:104180008900013E00F007B800F009B84FEA430C7F
:104190005FEA5C5C08D081EA030100F05BB84FEA9B
:1041A000410C5FEA5C5CF6D14FF0000001497047BA
:1041B0000000FF070000F87F0EF1020E2EF0030E44
:1041C0005EF8046B364205D4012A43EB030515F56E
:1041D000001F12D8012841EB010C1CF5001F0CD860
:1041E0000ED14FEAD17C15F5001F0CEB4C0C0CF1F5
:1041F000020C08BF4CEBD37C04E04FF0080C01E04C
:104200004FEAD37C0CEB4C0526FA05F606F00706C0
:10421000B6F1040C06D20EEB860CBDE870404CF0F3
:10422000010C6047DFE80CF0090B02024FF000417F
:104230004FF00000A1F5002170BD1946104601287D
:1042400051EB010418BFD4F5001484BF002001F025
:10425000004170BD0808A0F500114FEA3101704718
:1042600010B591EA030F48BF83F000433FF5EAAC75
:10427000841A71EB030C07D212198CF0004C43EB3B
:104280000C03001B61EB0C01DFF8A4E14FEA1154B1
:10429000A4EB135C1EEA430F18BF9EEA445F00F0D4
:1042A000B08023EA6E03524221EA0451C3EB6E034D
:1042B00038BF5B1EDCF1200E25D322FA0CFE10EB7A
:1042C0000E0043FA0CFE41EB0E01CCF1200E03FA76
:1042D0000EFE10EB0E0051F10001CCF1200E29D49E
:1042E00012FA0EF201EB0451BDE8104058BF7047BE
:1042F000401C1CBFB2F1004F704700280CBF491C86
:1043000020F00100704712EB020E43EB030218BFCE
:104310004FF0010E4EEA4202ACF1200CDCF11E0E11
:1043200054D943FA0CFE10EB0E0051F1FF31CCF1E1
:104330001E0ED5D50EF1010E12FA0EFE404141EBD4
:10434000010101EB445C5FEA5C5C10D910EBDE70AC
:1043500001EB045138BFBEF1004FBDE8104018BF5B
:10436000704700280CBF491C20F00100704730D274
:104370004FEAD42C11F5001124F400641BD0B1FADB
:1043800081F20B3AA41AA41ED2F12003914030FA14
:1043900003F31943904001EBCC71002C01EB045165
:1043A000BDE81040A8BF704701F1C0414FF00000C8
:1043B00001F000417047B0FA80F310FA03F100D128
:1043C00010BDE41A173C4805C90AE4E701EB0451A3
:1043D00010BD491001EB0451BDE810404FEA300018
:1043E00002E04FF0000170474A0008BF0042F8D0D9
:1043F000B2F5001F28BF704701F000414FF00000E8
:1044000070479EEA445F07D011EA5E0FBDE8104096
:1044100004BF002100207047BDE8104070B5FFF7D1
:10442000CBFE00BF40DFF63E83F0004110467047F0
:104430000000E0FF4FF04070E1EE100A7047FCF71B
:10444000ACB90000000000000000010203040607F0
:10445000080900000000010203043A535444494E85
:10446000003A5354444F5554003A53544445525221
:1044700000303132333435363738394142434445E0
:1044800046403058003031323334353637383961B0
:1044900062636465664030780000000002400000FE
:1044A000000000A00000000005400000000000C85F
:1044B000000000000C4000000000409C00000000D4
:1044C000194000000020BCBE000000003440000085
:1044D000BFC91B8E00000004B5400000504BCFD078
:1044E0006607E2CF010000006C4100003E8251AA45
:1044F000DFEEA73401000000D9420000DCB5A0E2E5
:104500003A301F97FFFFFFFFB4450000FD25A0C80C
:10451000E9A3C14FFFFFFFFFFF3F00000000008045
:1045200000000000FF3F00000000008000000000CD
:104530006C45000800000020A8000000C40100082D
:1045400014460008A8000020F8070000E001000859
:104550001C00000043000000F8FFFFFF0C000000FB
:104560000E0000000F0000002E0000000000000000
:10457000000000000000000000000000000000003B
:10458000000000000000000000000000000000002B
:10459000000000000000000000000000000000001B
:1045A000000000000000000000000000000000000B
:1045B00000000000000000000000000000000000FB
:1045C00000000000000000000000000000000000EB
:1045D00000000000000000000000000000000000DB
:1045E000000000000000000000000000024007077B
:1045F000FFFFFFFF000000000100000010000000AE
:10460000000000000024F400000000000000000092
:0446100000000000A6
:040000050800018965
:00000001FF
