:020000040800F2
:100000002807002029020008F5160008ED16000850
:10001000F116000821040008ED1800080000000097
:10002000000000000000000000000000E1170008D0
:100030002504000800000000F9160008E517000874
:10004000430200084302000843020008430200087C
:10005000430200084302000843020008430200086C
:10006000430200084302000843020008430200085C
:10007000430200084302000843020008430200084C
:10008000430200084302000843020008430200083C
:10009000430200084302000843020008430200082C
:1000A000430200084302000843020008430200081C
:1000B000430200084302000843020008430200080C
:1000C00043020008430200084302000843020008FC
:1000D00043020008430200084302000843020008EC
:1000E00029040008430200084302000843020008F4
:1000F00043020008430200084302000843020008CC
:1001000043020008430200084302000843020008BB
:1001100043020008430200084302000843020008AB
:10012000430200084302000843020008430200089B
:10013000430200084302000843020008430200088B
:10014000430200084302000843020008430200087B
:10015000430200084302000843020008430200086B
:10016000430200084302000843020008430200085B
:100170004302000843020008430200080000000098
:10018000430200084302000800F002F800F03CF8C7
:100190000AA090E8000C82448344AAF10107DA45E2
:1001A00001D100F031F8AFF2090EBAE80F0013F0F8
:1001B000010F18BFFB1A43F001031847581C000039
:1001C000781C0000103A24BF78C878C1FAD85207CA
:1001D00024BF30C830C144BF04680C6070470000C1
:1001E0000023002400250026103A28BF78C1FBD840
:1001F000520728BF30C148BF0B6070471FB501F0E0
:10020000F0FD1FBD10B510BD00F0D0F81146FFF78E
:10021000F5FF01F06DFB00F0EEF803B4FFF7F2FF1D
:1002200003BC00F0F5F80000094880470948004782
:10023000FEE7FEE7FEE7FEE7FEE7FEE7FEE7FEE796
:10024000FEE7FEE704480549054A064B70470000F3
:10025000E91700088901000828010020280700206C
:10026000280300202803002053EA020C00F06980D4
:100270002DE9F04B4FF00006002B1FBFB3FA83F5BA
:1002800003FA05F424FA05F65E4012BF1643B2FAEB
:1002900082F502FA05F4C5F120051EBF22FA05FC1D
:1002A00044EA0C04203556EA044C4FEA144418BFC3
:1002B000641C4FF000084FF00009904271EB030CF2
:1002C00039D3002919BFB1FA81F701FA07F6B0FA5C
:1002D00080F700FA07F6C7F120071EBF20FA07FCD7
:1002E00046EA0C062037B6FBF4FCA7EB0507103FE7
:1002F00007F01F0BCBF120062CFA06F60CFA0BFBCD
:1003000044BFB3460026202FA4BF5E464FF0000B2B
:100310005BEA060C08BF4FF0010B19EB0B0948EB29
:100320000608ABFB027C06FB02CC0BFB03CCC01B1C
:1003300071EB0C01C1E70B46024641464846BDE859
:10034000F08B13B5084318BF4FF0FF300146AFF3F1
:100350000080BDE81C4070474FF0000200B5134616
:1003600094469646203922BFA0E80C50A0E80C50D5
:10037000B1F12001BFF4F7AF090728BFA0E80C5086
:1003800048BF0CC05DF804EB890028BF40F8042B7F
:1003900008BF704748BF20F8022B11F0804F18BFEC
:1003A00000F8012B7047704770477047754600F0A2
:1003B0002BF8AE4605006946534620F007008546F7
:1003C00018B020B5FFF73EFFBDE820404FF0000613
:1003D0004FF000074FF000084FF0000BAC46ACE8C0
:1003E000C009ACE8C009ACE8C009ACE8C00921F01C
:1003F00007018D46704710B50446AFF300802046D4
:10040000BDE81040FFF709BF00487047100000200A
:1004100001491820ABBEFEE726000200704700002D
:10042000FEE70000704700004FF4804000F016B86F
:10043000B0B5044600F0F8F8054640F20000C2F2FC
:1004400000000078611C18BF044400BF00F0ECF805
:10045000401BA042FAD3B0BD7047000043F61441E0
:10046000C4F201010A68024214BF08607047FFF736
:10047000F3BF00002DE9F04F82B000F13E4241F69B
:10048000004502F1FF77C4F20205082243F6004E50
:100490004FEAB726A84208BF0722C4F2010E072E72
:1004A00038BF4FEAB7220125002600274FF0000889
:1004B000009208E008F101080437B8F1100F06F1C6
:1004C000020600F0A7800C6805FA08F914EA090F83
:1004D000F0D0D1F804B003220BF0030CACF101040E
:1004E000B240012C6FEA020A10D88268CC6802EA96
:1004F0000A02B440224382604268CBF3001422EA2D
:10050000090204FA08F42243426005E0BCF1030F3B
:1005100002D14FF0030C20E0C2688C6802EA0A02A4
:10052000B4402243BCF1020FC26016D16FF0030247
:1005300002EA58020244D2F820C007F01C050F233B
:100540000C69AB402CEA030304FA05F52B43136254
:10055000D1F804B001250BF0030C02680CFA06F385
:1005600002EA0A021A431BF4403F0260A2D00022B2
:1005700043F644030192C4F202031A684FF6084C92
:1005800042F480421A601A68CFF6FF7C02F480427F
:100590000192019A28F00302724452F80C3007F0DD
:1005A0000C050F24AC40A343009C04FA05F52B4333
:1005B00042F80C30DEF808204B6842EA090543F6A1
:1005C0000C4CDC0258BF22EA0905CEF80850C4F2F0
:1005D000010CDCF800209C0242EA090558BF22EA1F
:1005E0000905CCF80050DEF804209C0342EA090516
:1005F00058BF22EA0905CEF80450DEF80020DB03DC
:1006000042EA090558BF22EA0905CEF80050012543
:1006100050E700BF02B0BDE8F08F0000002A08BF1D
:10062000090481617047000040F22410C2F200000A
:100630000068704740F2000040F22411C2F200004E
:10064000C2F2000100780A68104408607047000098
:1006500080B543F60040C4F20200016841F4007125
:100660000160016841F480610160016841F48071BA
:100670000160032000F08AF8002000F005F800F087
:1006800027F8002080BD000070B540F20006C2F2DD
:10069000000640F208013278C2F200014FF47A738A
:1006A0000968B3FBF2F20446B1FBF2F1084600F030
:1006B000A1FF0F2C4FF0010508D838B94FF0FF30DB
:1006C00021460022002500F035F87460284670BDF0
:1006D00082B0002043F640010190C4F202014A6852
:1006E00042F480424A604A6802F480420192019AD0
:1006F0000090086840F080500860086800F0805062
:1007000000900098072002B000F040B8002848BFD1
:100710007047C1B200F01F00012202FA00F04EF251
:100720000012CEF2000242EAD10121F0030108607A
:100730007047000010B54EF60C5CCEF2000CDCF8F1
:100740000030C3F3022E8EF00704042C28BF0424CB
:10075000BEF103034FF0FF3E0EFA04F438BF00234E
:10076000A14399400EFA03F39A43114300F00F029C
:1007700000F160430901043A03F564436244002830
:1007800048BF02F10C03197010BD00004EF60C5169
:10079000CEF200010A684FF6FF031A4060F30A2206
:1007A00042F0806040F0FD70086070472DE9F04134
:1007B000002800F08B8043F60808C4F202080446C3
:1007C000D8F8F8030D4600F00700884207D288F8F1
:1007D000F853D8F8F80300F00700A84276D1206853
:1007E000810717D5410705D5D8F8001041F4E0512D
:1007F000C8F80010010705D5D8F8001041F4604191
:10080000C8F80010D8F80010A26821F0F0011143D8
:10081000C8F80010C0073FD1D8F8F80300F007006F
:10082000A84207D988F8F853D8F8F80300F0070071
:10083000A8424BD12068410707D5D8F80010E268DC
:1008400021F4E0511143C8F80010000708D5D8F88A
:100850000000216920F4604040EAC100C8F80000AF
:1008600000F07CF8D8F8001041F6FC52C1F30311F7
:10087000C0F60002515C40F2080220FA01F140F299
:100880000400C2F200000068C2F200021160FFF72B
:10089000FBFE0020BDE8F0816068811E022907D2BE
:1008A00058F8081C89015CBF0120BDE8F08111E007
:1008B000012807D158F8081C89035CBF0120BDE856
:1008C000F08107E058F8081C890703D40120BDE82F
:1008D000F08100BFD8F8001021F003010843C8F8E8
:1008E0000000FFF7A1FE064641F28837D8F8000065
:1008F000616800F00C00B0EB810F8DD0FFF794FE23
:10090000801BB842F2D90320BDE8F08140F2080014
:1009100043F60801C2F20000C4F20201006809684F
:1009200041F60C62C1F38221C0F60002515CC8405E
:100930007047000040F2080043F60801C2F20000D0
:10094000C4F202010068096841F60C62C1F3423149
:10095000C0F60002515CC8407047000010B543F675
:100960000404C4F20204606800F00C0142F200408A
:100970000829C0F2F40007D0042918BF10BD41F2C5
:100980000020C0F27A0010BD216801F03F0221680A
:1009900023684902C3F3881106D4A1FB0001002398
:1009A000FFF762FC07E000BF41F20020C0F27A00CE
:1009B0004843B0FBF2F021680222C1F3014102EB8F
:1009C0004101B0FBF1F010BD2DE9F04182B00028EB
:1009D00068D00446007843F60006C007C4F2020659
:1009E0000BD0B06800F00C00042840F09F80306805
:1009F000800302D56068002854D0207880071AD57B
:100A0000B06810F00C0F09D0B06800F00C00082896
:100A100040F0A6807068400200F1A2803068800734
:100A200002D5E06801283DD13068216920F0F80046
:100A300040EAC10030602078000737D420784007B2
:100A40004CD4A56955B3B06800F00C00082840F0FC
:100A5000BB80012D26D07068E16900F480028A42D3
:100A600020D1216A00F03F028A421BD147F6C071B3
:100A7000626A0140B1EB821F14D1A16A4FF6FF7385
:100A8000C903994300F44032A1F580318A4209D16B
:100A9000E16A00F07060B0EB016F03D1002002B09A
:100AA000BDE8F081012002B0BDE8F0816069002856
:100AB00040F20000C4F2472076D00121C0F8801E29
:100AC000FFF7B2FD054600BF706F8007B6D4FFF791
:100AD000ABFD401B0228F7D9DDE000BF306C10F001
:100AE00080580AD100200190306C40F08050306472
:100AF000306C00F080500190019847F20007C4F27A
:100B000000073868C00541D4386840F48070386008
:100B1000FFF78AFD054600BF3868C00536D4FFF7E9
:100B200083FD401B0228F7D9B5E000BFB06800F094
:100B30000C00082803D1706840023FF558AF606888
:100B4000B0F5803F07D0B0F5A02F40F08D80306821
:100B500040F480203060306840F4803030608DE0B8
:100B6000E068002852D00020C4F247200121016033
:100B7000FFF75AFD054600BF306880073FF554AFC8
:100B8000FFF752FD401B0228F6D984E0A068012837
:100B900005D005284ED1306F40F004003067306F2B
:100BA00040F0010030674FE00021C0F8801EFFF7E1
:100BB0003BFD0546706F80077FF540AFFFF734FDC2
:100BC000401B0228F6D966E00027C4F24727002020
:100BD0003866FFF729FD022D05460BD130688001EC
:100BE0005ED5FFF721FD401B02284FF00300F5D929
:100BF00055E700BF306880017FF550AFFFF714FD67
:100C0000401B02284FF00300F4D948E70020C4F24B
:100C1000472000210160FFF707FD05463068800787
:100C20007FF509AFFFF700FD401B02284FF00300DE
:100C3000F4D934E7316F002821F001013167316FB9
:100C400021F0040131674DD0FFF7EEFC054641F27B
:100C5000883700BF306F800756D4FFF7E5FC401B94
:100C6000B842F7D917E000BF3168002821F480317D
:100C70003160316821F4802131604FD0FFF7D4FC1E
:100C8000054600BF306880033FF5B7AEFFF7CCFCE8
:100C9000401B6428F6D9032002B0BDE8F08100BFF4
:100CA00004F11C052FCD084340EA8210D9034FF60A
:100CB000FF729143A1F5803140EA056008437060FE
:100CC00001203866FFF7B0FC044600BF30688001A1
:100CD0003FF5E4AEFFF7A8FC001B02284FF003002D
:100CE000F4D9DCE6FFF7A0FC054641F2883700BFE7
:100CF000306F800708D5FFF797FC401BB8424FF0D4
:100D00000300F5D9CBE600BFB8F1000F7FF499AE30
:100D1000306C20F08050306493E600BFFFF784FC15
:100D2000054600BF306880037FF567AEFFF77CFCA7
:100D3000401B64284FF00300F4D9B0E670B538B119
:100D40000446406A30B10020206104F1140007E03D
:100D5000012070BD6068B0F5827F03D004F11C00F3
:100D6000002101600026A66294F8510020B92046B7
:100D700084F8506000F03CF8022084F8510094E8B8
:100D80000F0001F48271056802F4044225F0400569
:100D90000560114403F400622369114403F0020268
:100DA0006369114403F00102A369E569114403F486
:100DB0000072114405F03802256A114405F08002E2
:100DC000A56A114305F4005211430160626A0421CF
:100DD00001EA134102F0100211444160C16921F49B
:100DE0000061C1610120666584F85100304670BD24
:100DF0002DE9F04385B0006843F60005C4F2000514
:100E0000A84203D005B0BDE8F08300BF002643F63A
:100E100030000096C4F2020001696C4641F4804142
:100E2000016101694FF0020801F4804100910099CD
:100E3000009601684FF0030941F004010160016868
:100E4000052701F00401009100990096016841F026
:100E5000020101600068214600F002000090009845
:100E60000C20009005F5E830CDE90186CDF80C9016
:100E70000497FFF7FFFA4FF48060CDE9000805F50D
:100E8000E6302146CDE902690497FFF7F3FA05B091
:100E9000BDE8F0832DE9F04381B0044640681D466B
:100EA0001746B0F5827F0E4601D1A068E0B394F8F2
:100EB0005000012804D1022001B0BDE8F08300BF3A
:100EC0004FF0010984F85090FFF7AEFB94F85110F1
:100ED000012927D18046002E4FF0010018BF002FB6
:100EE00000F0C9800420002184F851006165A663E8
:100EF000A787E7872163A186E186A2682068B2F50B
:100F0000004F216461644BD00168490653D5E16804
:100F1000E08F002957D0002800F08680681C1CD183
:100F20002DE000BF0220A6E0042084F851002046F6
:100F3000314632463B46009500F0D0F901B0BDE89D
:100F4000F08300BFC068A16B21F8020BA163E08FA2
:100F50000138E087E08F002866D020688168C907E3
:100F6000F0D1FFF761FBA0EB0800A842F2D3032009
:100F700081E000BFFFF758FBE08F002854D02068C5
:100F80008168C907F6D0C068A16B21F8020BA16384
:100F9000E08F0138E087E08F0028F0D144E000BF07
:100FA000016821F040010160016821F48041016085
:100FB00001684906ABD4016841F040010160E16875
:100FC000E08F0029A7D178B3681C0CD11CE000BFCA
:100FD000007BA16B0870A06B0130A063E08F01382B
:100FE000E087E08F00B320688168C907F0D1FFF780
:100FF0001BFBA0EB0800A842F3D303203BE000BF9B
:10100000FFF712FBE08F78B120688168C907F7D03D
:10101000007BA16B0870A06B0130A063E08F0138EA
:10102000E087E08F0028EFD16068B0F5827F0ED1B5
:10103000A068B0F5004F02D0B0F5806F0AD12168EA
:10104000B0F5806F0A6822F040020A6002D12046A3
:10105000012101E0204680212A46434600F04EFB54
:1010600028B1606D40F02000606520206065606DF3
:10107000002818BF0120002184F8519084F85010F6
:1010800001B0BDE8F08300002DE9F04383B00446D1
:1010900090F85000012803D1022003B0BDE8F0838E
:1010A0004FF001091D4616460F4684F85090FFF791
:1010B000BBFA94F85110012944D18046002F4FF01B
:1010C000010018BF002E00F0D6800320002184F814
:1010D000510061652763A686E686A163A187E18743
:1010E000A0682164B0F5004F2068616407D10168F1
:1010F00021F040010160016841F480410160016814
:10110000490603D4016841F0400101606168731E23
:10111000E268B1FA81F1B3FA83F349095B09B2F5E8
:10112000006F41EA03013DD131B137F8021BC160C4
:101130002763E08E0138E086E08E00286CD0681CC2
:101140000DD11EE0022096E0216B31F8022BC26027
:101150002163E08E0138E086E08E00285CD02068B4
:1011600081688907F0D4FFF75FFAA0EB0800A84276
:10117000F2D303207FE000BFFFF756FAE08E00288D
:101180004AD0206881688907F6D5216B31F8022B97
:10119000C2602163E08E0138E086E08E0028F0D145
:1011A0003AE000BF39B139780173206B0130206318
:1011B000E08E0138E086E08E70B3681C0BD11BE036
:1011C000216B09780173206B01302063E08E0138B8
:1011D000E086E08E00B3206881688907F0D4FFF7CD
:1011E00023FAA0EB0800A842F3D3032043E000BF9A
:1011F000FFF71AFAE08E78B1206881688907F7D581
:10120000216B09780173206B01302063E08E013877
:10121000E086E08E0028EFD140F20800C2F2000024
:10122000006849F68171C1F25E61A0FB0101480DC1
:101230004FF47A71484302906068B0F5827F23D101
:10124000204680212A46434600F058FA28B1606DB6
:1012500040F02000606520206065A06838B900205B
:1012600001902068C1680191806801900198606DCB
:10127000002818BF0120002184F8519084F85010F4
:1012800003B0BDE8F08300BF02980028E5D00298C3
:1012900001380290206880680006DED50298002898
:1012A000DBD0029801380290206880680006D4D50F
:1012B00002980028D1D002980138029020688068F6
:1012C0000006CAD502980028C7D0029801380290BB
:1012D000206880680006D7D4BFE700002DE9F043FE
:1012E00083B0044690F85000012803D1022003B0D7
:1012F000BDE8F08301201E4615460F4684F85000D5
:10130000FFF792F994F851108146012940F0988036
:10131000002F4FF0010018BF002D00F09E80002E1E
:1013200000F09B8094F85100002104281CBF052088
:1013300084F851006165A563E687A6872763E68682
:101340002068A686216461640168490603D40168A7
:1013500041F0400101606168731EE268B1FA81F1F9
:10136000B3FA83F3DDF8288049095B09B2F5006F11
:1013700041EA03017AD131B137F8021BC16027631A
:10138000E08E0138E086012518F1010031D101E03D
:10139000FFF74AF9E08E18B9E08F002800F0D080FE
:1013A0002068816889070CD5E18E51B1012D08D1E3
:1013B000216B002531F8022BC2602163E18E0139D7
:1013C000E1868168C907E3D0E18F0029E0D0C068D9
:1013D000A16B012521F8020BA163E08F0138E087A2
:1013E000D6E700BFFFF720F9A0EB0900404580F0E9
:1013F000FD80E08E18B9E08F002800F0A180206801
:10140000816889070CD5E18E51B1012D08D1216B7E
:10141000002531F8022BC2602163E18E0139E1869B
:101420008168C907DED0E18F0029DBD0C068A16BDD
:10143000012521F8020BA163E08F0138E087D1E795
:101440006068B0F5827F07D1A06800284FF00200E5
:1014500008BF042901D15BE70220012184F8511063
:10146000002184F8501003B0BDE8F08339B1397819
:101470000173206B01302063E08E0138E086012586
:1014800018F1010033D101E0FFF7CEF8E08E10B97A
:10149000E08F002854D02068816889070ED5E18E3E
:1014A00061B1012D0AD1216B002509780173216BEF
:1014B000206801312163E18E0139E1868168C90725
:1014C000E2D0E18F0029DFD0C068A16B0125087050
:1014D000A06B0130A063E08F0138E087D4E700BF44
:1014E000FFF7A2F8A0EB0900404580F08180E08E74
:1014F00008B9E08F20B32068816889070ED5E18E96
:1015000061B1012D0AD1216B002509780173216B8E
:10151000206801312163E18E0139E1868168C907C4
:10152000DED0E18F0029DBD0C068A16B01250870F7
:10153000A06B0130A063E08F0138E087D0E700BFE7
:1015400040F20800C2F20000006849F68171C1F261
:101550005E61A0FB0101480D4FF47A71484302908F
:101560006068B0F5827F0FD12046802142464B460D
:1015700000F0C4F860B3606D40F02000606520208A
:101580006065012069E700BF029808B3029801383E
:1015900002902068806800061AD50298C0B10298AF
:1015A0000138029020688068000611D5029878B151
:1015B00002980138029020688068000608D50298D9
:1015C00030B1029801380290206880680006DBD4B0
:1015D000A06800284FF000007FF43FAF0190216821
:1015E000CA68019289680191019936E7032034E7BE
:1015F000032032E7411E0020B0EB116F1CBF012019
:1016000070474EF21002CEF2000251604EF62351A6
:10161000CEF20001F0230B7007219060116070473B
:10162000002804BF0120704710B5044690F83D0023
:1016300028B9002084F83C00204600F021F824203E
:1016400084F83D002068C16821F40051C160204643
:1016500000F0D4F82068016921F4904101614169EA
:1016600021F02A014161C16841F40051C1600020AC
:101670002021206484F83D1084F83E1010BD000045
:1016800080B586B0016841F20040C4F20100814299
:1016900002D006B080BD00BF002143F630020191A8
:1016A000C4F20202536900F5744043F02003536111
:1016B000536903F020030193019B0191136843F0E8
:1016C00004031360126802F004020192019AC0221E
:1016D00001920222CDE90221032104910821059102
:1016E00001A9FEF7C7FE06B080BD0000FEE70000BE
:1016F000FEE70000FEE70000704700002DE9F04122
:1017000082B01E4690460D460446FEF78DFF301A05
:1017100000EB0807FEF788FF40F20801C2F2000163
:101720000968C1F3CB317943019121688A682A4065
:10173000AA4227D1064618F101001FD0FEF774FF18
:10174000801BB84222D2019801990028A1F1010121
:1017500001912168896808BF074601EA0500A8428F
:10176000ECD00FE088682840A8420BD18868284058
:10177000A84207D188682840A84203D18868284039
:10178000A842EFD0002002B0BDE8F081D4E900010A
:101790004268B1F5827F22F0E00242600AD1A1687E
:1017A000B1F5004F02D0B1F5806F03D1016821F08F
:1017B00040010160A16AB1F5005F07D1016821F421
:1017C00000510160016841F400510160012084F87A
:1017D0005100002084F85000032002B0BDE8F081E1
:1017E00070470000FEF726BF4EF68850CEF200008C
:1017F000016841F4700101607047000010B50446B3
:101800000068D4E902C22369016921F440511143FF
:101810000161626943EA0C01E3691143C26819433B
:1018200049F20C639A431143C1604169A26921F4F2
:10183000407141F20043114340F48062C4F201035D
:101840009A42416102D1FFF775F801E0FFF75EF8B7
:10185000E16963681922B1F5004FA0FB020123D1B1
:101860005A00DB0FFEF700FD48F21F51C5F2EB11E5
:10187000A0FB01235A094FF69C73C0F6FF7303F1D6
:10188000805302FB0300322303EBC000A0FB0101E5
:101890004FF4F87000EA111000EB0210C1F342118E
:1018A00008442168886010BD9A009B0FFEF7DCFC9D
:1018B00048F21F51C5F2EB11A0FB01235A094FF664
:1018C0009C73C0F6FF7302FB0300322303EB00108E
:1018D000A0FB0101F02000EA511000EB0210C1F35F
:1018E000431108442168886010BD0000FEE7000035
:1018F00092B043F6300740F60044C4F20207C4F247
:101900000204FEF7A5FE06AD281D2C21FEF724FDDE
:1019100000260596CDE90366CDE901660096386993
:1019200040F080503861386900F080500090009895
:1019300046F200400096CFF6FE70215841F48041F7
:101940002150205800F4804000900098022006901A
:101950000120099010200A9028460C96FFF734F8D1
:1019600020B1EFF3108072B6FEE700BF0F20CDE983
:1019700001064FF4A050CDE9040001A80021039610
:10198000FEF714FF20B1EFF3108072B6FEE700BF40
:101990000026CDE90966019638684FF4704140F0A1
:1019A000040038603868002200F0040001900198BB
:1019B000019638684FF4704840F00100386038688C
:1019C00000F00100019001980196386840F0100085
:1019D0003860386800F0100001900198019638686E
:1019E00040F002003860386800F002000190019871
:1019F0000196386840F008003860386800F0080048
:101A0000019001982046FEF709FE06AD0127A4F5D6
:101A100040602946CDE906760896FEF72BFD4FF487
:101A2000804006904FF48810CDE9070604F58060E9
:101A30002946FEF71FFD20462946CDE90687CDE958
:101A40000866FEF717FD282000210022FEF772FE2F
:101A50002820FEF75BFE40F2CC0043F60001C2F204
:101A60000000C4F200014FF482724FF400730827A3
:101A700080E846000A21C0E90366C0E90563C76142
:101A8000C0E90866C0E90A61FFF758F920B1EFF331
:101A9000108072B6FEE700BF40F27005C2F200058A
:101AA000A4F57841284640F8181F4FF4E1310C2284
:101AB000C0E90116C0E90366C0E90526C661FFF763
:101AC000AFFD28B1EFF3108072B600BFFEE700BF94
:101AD00020464FF4804100224FF00009FEF79EFDA2
:101AE0004FF47A70FEF7A4FC20464FF480410122A7
:101AF0004FF00108FEF792FD20464FF4004100220E
:101B0000FEF78CFD40F2CC06C2F200062F463046AE
:101B100029460122322307F8019BFFF7B5FA304628
:101B2000394601223223FFF7B5F920464FF4004130
:101B30000122FEF773FD4FF47A70FEF779FC204620
:101B40004FF400410022FEF769FD4FF410702F465C
:101B500027F8140F30463946022232234FF0020A8A
:101B6000FFF792FA20464FF400410122FEF756FD9E
:101B70004FF47A70FEF75CFC20464FF400410022DF
:101B8000FEF74CFD05F1160130460122322387F89D
:101B90000090FFF77FF920464FF400410122FEF745
:101BA0003DFD4FF47A70FEF743FC20464FF40041B0
:101BB0000022FEF733FD294601F8028F304601224C
:101BC0003223FFF761FAE91C304601223223FFF786
:101BD00061F920464FF400410122FEF71FFD4FF44A
:101BE0007A70FEF725FC20464FF400410022FEF7F4
:101BF00015FD294601F804AF304601223223FFF7D4
:101C000043FA691D304601223223FFF743F920468B
:101C10004FF400410122FEF701FD4FF47A70FEF708
:101C200007FC20464FF400410022FEF7F7FC03209A
:101C3000294601F8060F304601223223FFF724FA25
:101C4000E91D304601223223FFF724F920464FF4E4
:101C500000410122FEF7E2FC4FF47A70FEF7E8FB48
:101C600020464FF400410022FEF7D8FC042029460C
:101C700001F8080F304601223223FFF705FA05F17B
:101C80000901304601223223FFF704F920464FF4C0
:101C900000410122FEF7C2FC4FF47A70FEF7C8FB48
:101CA00020464FF400410022FEF7B8FC05202946EB
:101CB00001F80A0F304601223223FFF7E5F905F15A
:101CC0000B01304601223223FFF7E4F820464FF49F
:101CD00000410122FEF7A2FC4FF47A70FEF7A8FB48
:101CE00020464FF400410022FEF798FC06202946CA
:101CF00001F80C0F304601223223FFF7C5F905F138
:101D00000D01304601223223FFF7C4F820464FF47C
:101D100000410122FEF782FC4FF47A70FEF788FB47
:101D200020464FF400410022FEF778FC07202946A8
:101D300001F80E0F304601223223FFF7A5F905F115
:101D40000F01304601223223FFF7A4F820464FF45A
:101D500000410122FEF762FC4FF47A70FEF768FB47
:101D600020464FF400410022FEF758FC0820294687
:101D700001F8100F304601223223FFF785F905F1F3
:101D80001101304601223223FFF784F820464FF438
:101D900000410122FEF742FC4FF47A70FEF748FB47
:101DA00020464FF400410022FEF738FC092005F8D8
:101DB000120F3046294601223223FFF765F9691CCC
:101DC000304601223223FFF765F820464FF40041E8
:101DD0000122FEF723FC4FF47A70FEF729FB00BFC7
:101DE000FEE7F1EE100A4FF6FF71C0F2C03120EAB3
:101DF000010040F04070E1EE100A70470000000062
:101E000000000000010203040607080900000000AA
:101E100001020304381E000800000020100000002A
:101E2000C4010008481E0008100000201807000028
:101E3000E0010008000000000100000010000000A8
:081E40000024F4000000000082
:040000050800018965
:00000001FF
